S02300006275696C642F64656275672F7468657369735F70726F6A6563745F732E733337A4
S31508000000080C0020410300083998000839980008B0
S31508000010F3C100083998000839980008399800088B
S31508000020399800083998000839980008399800085E
S3150800003039980008E8F10008399800083998000846
S31508000040399800083998000839980008399800083E
S31508000050399800083998000839980008399800082E
S31508000060399800083998000839980008399800081E
S31508000070399800083998000839980008399800080E
S3150800008039980008399800083998000839980008FE
S3150800009039980008399800083998000839980008EE
S315080000A039980008399800083998000839980008DE
S315080000B039980008399800083998000839980008CE
S315080000C039980008399800083998000839980008BE
S315080000D039980008399800083998000839980008AE
S315080000E0399800083998000839980008399800089E
S315080000F0399800083998000839980008399800088E
S31508000100399800083998000839980008399800087D
S31508000110399800083998000839980008399800086D
S31508000120399800083998000839980008399800085D
S31508000130399800083998000839980008399800084D
S31508000140399800083998000839980008399800083D
S31508000150399800083998000839980008399800082D
S31508000160399800083998000839980008399800081D
S31508000180F0B5114A114C124E00F00105E3695F07FC
S3150800019013D40DB9334213D103EA00078F4207D1AE
S315080001A00B4A1A40002A0CBF00206FF00100F0BD70
S315080001B0013AEBD16FF00200F9E74FF0FF30F6E7AE
S315080001C06FF00100F3E700BF809698000000034037
S315080001D0020001000B4B70B5D96911F480310DD1BD
S315080001E001244FF48072084E084DF46020462C64B2
S315080001F01A61FFF7C5FF3464EC6070BD6FF001004B
S31508000200FBE700BF00000340001003400020034046
S315080002104FF4803238B50E4B0E4C9A66E56941F6B6
S31508000220713315400122E3630B4B0021DA60022388
S31508000230606121202361FFF7A3FF10B92120FFF792
S315080002409FFF0122054BDA600DB10023E36338BD39
S3150800025000900050000003400010034000200340B7
S3150800026070B5134C6061E3695B071ED40E4656F8F9
S31508000270043B8D18A361AE420BD104230021212033
S315080002802361FFF77DFF58B9BDE870402120FFF7CD
S3150800029077BF08210846FFF773FF10B104232361CF
S315080002A070BD56F8043BA361E5E74FF0FF30F7E76A
S315080002B0000003402DE9F84315464FF48032174BEA
S315080002C089469A66164B0646DF69DFF85C80174052
S315080002D041F67132DA63012203F58053DA6055B9C3
S315080002E0284601220F4BDA601FB10022A3F50053FE
S315080002F0DA63BDE8F88306F5005404EA0804A41B8B
S31508000300AC4228BF2C46494622463046FFF7A8FF8E
S315080003100028E6D12644A1442D1BE0E700900050B2
S31508000320000003400020034000E0FFFF000000003B
S3150800033000000000000000000000000000000000AF
S3150800034008B51B4B83F30A881A4B17A1D1E900019C
S31508000350C3E9000100F030FF00F020FF164B1749F3
S315080003608B4212D30020164B16498B4218D300F045
S3150800037077F8186850F82240586840F82240013249
S3150800038098688242F5D30C33EAE70022F8E71C683E
S3150800039044F8220001325C68A242F8D30833E4E745
S315080003A00022F8E7AFF30080A5EDF5FEA5EDF5FE12
S315080003B008000020080C002028F6000834F600087B
S315080003C034F6000834F600080348044B834202D08A
S315080003D0034B03B11847704790150020901500206D
S315080003E000000000064B0749C91A891048BF0131A9
S315080003F0491003D0044B0BB101481847704700BF9A
S3150800040090150020901500200000000010B5064C3D
S31508000410237843B9FFF7D8FF044B13B10448AFF369
S3150800042000800123237010BDB013002000000000D7
S31508000430E4F4000808B5054B1BB105490548AFF3B8
S315080004400080BDE80840FFF7CDBF00BF00000000F0
S31508000450680E0020E4F40008A3F5803A704700BF50
S31508000460174B002B08BF134B9D46FFF7F5FF0021DE
S315080004708B460F461348144A121A0EF0C8FD0E4B47
S31508000480002B00D098470D4B002B00D09847002032
S31508000490002104000D000D48002802D00C48AFF3D7
S315080004A0008008F01FF8200029000BF037FA08F042
S315080004B007F800BF00000800000000000000000068
S315080004C0080C0020100C0020C013002000000000BB
S315080004D0000000004FF000639B6A03F17842B2F512
S315080004E0C04F03D21968064A914203D0002303700D
S315080004F083607047012202709A689B694260F7E739
S3150800050007B0CD5E0020054B82B01B689AB262F335
S315080005100F001B0C63F31F4002B070470000002059
S31508000520074B084A1A60BFF34F8F0749074BCA683B
S3150800053002F4E0621343CB60BFF34F8F00BFFDE7C1
S315080005400000002002020FF000ED00E00400FA05AA
S3150800055037B5264B04461A781AB102221A7003B028
S3150800056030BDCDE900220028F9D001251D700EF016
S31508000570ABFD1F4B186008F07FF81E4B5A6E626180
S315080005809B6E1D4AA3614FF4804393661B4B5968C3
S31508000590E1611B499960196E2160596E6160D3F853
S315080005A07011A160196CE160596C21611549086CDC
S315080005B01864496C596455661B6E980411D5124A1D
S315080005C0D368D907FCD40423104C0DEB0301C4F8F7
S315080005D07031684608F034F8009B2366019B636611
S315080005E0BDE70B4AD368DB07FCD4ECE7B21300205F
S315080005F0A00E0020008000500090005000800044AB
S3150800060055CEAC0000C000540000044000900044E1
S315080006100000045070B51C4D04462E78012E02D0F9
S3150800062001232B7070BD0028FCD009F051F8013069
S315080006300BD009F04DF840F20113984205D0134B40
S31508000640134A5E66D368D907FCD42268114B1A662A
S3150800065062685A66A268C3F87021E2681A64226959
S315080006605A64E269D20744BF00229A6062690A4B5B
S315080006705A66A2699A6608F000F8084B18680EF0E0
S315080006801EFD0023CDE700BFB213002000900040F6
S31508000690000004400080004400800050A00E0020A6
S315080006A038B54FF000639B6A03F17842B2F5C04F44
S315080006B020D21A68114B9A421CD1114D2B7823B1BE
S315080006C0022B06D00024204638BD4FF480420D4B3D
S315080006D09A660D48FFF73CFF4FF000639B6ADB699B
S315080006E0984704460848FFF795FF002CEBD10123ED
S315080006F02B70E7E74FF48174E5E700BF07B0CD5EDE
S31508000700B113002000900050800E002038B54FF03D
S315080007100064A36A03F17842B2F5C04F16D21A688C
S315080007200D4B9A4212D10D4D2B78012B11D10C4845
S31508000730FFF70EFFA36A1B6A9847044608B9022307
S315080007402B700748FFF766FF204638BD4FF48174C3
S31508000750FAE70024F8E700BF07B0CD5EB113002022
S31508000760800E002070B54FF00066B36A044603F1A8
S315080007707843B3F5C04F0D460DD20848FFF7E8FE9B
S31508000780B36A204629469B6A984704460348FFF7FA
S3150800079041FF204670BD40F20224FAE7800E002091
S315080007A02DE9F04198464FF000639B6A054603F130
S315080007B07843B3F5C04F0E46174686B005D340F2C8
S315080007C00224204606B0BDE8F08101238DF80C30DE
S315080007D0002303A8CDE90433FFF77CFE049C230E0F
S315080007E0EDD0012B03D1C4F307440A2CE7D90948F5
S315080007F0FFF7AEFE4FF000630C9A9B6A00925C6BA3
S315080008003A46434631462846A04704460148FFF77C
S3150800081001FFD6E7800E002038B54FF00065AB6AB9
S31508000820044603F17843B3F5C04F0CD20748FFF7E7
S315080008308FFEAB6A20465B6A984704460348FFF773
S31508000840E9FE204638BD0024FBE700BF800E0020E5
S315080008500C4B0D49D3F8942002F001020A707AB1C4
S31508000860BFF35F8F5A6A22F480325A62D3F8942013
S3150800087022F00102C3F89420BFF34F8FBFF36F8FA6
S31508000880704700BF00ED00E0B31300204FF000539F
S31508000890074A1A60BFF34F8F0649074BCA6802F426
S315080008A0E0621343CB60BFF34F8F00BFFDE700BF85
S315080008B00C020FF000ED00E00400FA05084B1B7867
S315080008C06BB1BFF35F8F0522064BC3F894205A6AB3
S315080008D042F480325A62BFF34F8FBFF36F8F70476F
S315080008E0B313002000ED00E013B5049C009405F056
S315080008F035FA034B984201D0FFF7C8FF02B010BD86
S31508000900AA55AA552DE9F0411F46536805461C2BE2
S315080009100E4614469AB002D1D368042B01D0FFF7CD
S31508000920B5FF02AB6022002118460EF070FB3B466D
S315080009302246314600902846FFF7D6FFDDE90256E3
S315080009400E9FDDF840802A48FFF782FF40F2C1215A
S31508000950FFF708FF0446FFF7B1FF90B9FFF778FFE6
S31508000960234832463B462946CDF80080FFF718FF54
S31508000970FFF7A4FF044640F2C12200211C480EF0EE
S3150800098046FB20461AB0B7EE000ABDE8F0417146AC
S3150800099072467346F7EE000AB7EE001AF7EE001A2B
S315080009A0B7EE002AF7EE002AB7EE003AF7EE003A5D
S315080009B0B7EE004AF7EE004AB7EE005AF7EE005ACD
S315080009C0B7EE006AF7EE006AB7EE007AF7EE007A3D
S315080009D08EF3008C10B4F1EE10CA4FF66074C0F6B0
S315080009E0FF740CEA040CE1EE10CA10BCF446744716
S315080009F0A40E002008B5FFF72BFF40F2C1221D49BF
S31508000A0000F044F9FFF75AFFBDE808407146724600
S31508000A107346B7EE000AF7EE000AB7EE001AF7EECD
S31508000A20001AB7EE002AF7EE002AB7EE003AF7EEFC
S31508000A30003AB7EE004AF7EE004AB7EE005AF7EE6C
S31508000A40005AB7EE006AF7EE006AB7EE007AF7EEDC
S31508000A50007A8EF3008C10B4F1EE10CA4FF660746B
S31508000A60C0F6FF740CEA040CE1EE10CA10BCF4469A
S31508000A70744700BFA40E002008B5FFF7E9FE1D481D
S31508000A80002100F027F9FFF719FFBDE80840714675
S31508000A9072467346B7EE000AF7EE000AB7EE001A7A
S31508000AA0F7EE001AB7EE002AF7EE002AB7EE003A7C
S31508000AB0F7EE003AB7EE004AF7EE004AB7EE005AEC
S31508000AC0F7EE005AB7EE006AF7EE006AB7EE007A5C
S31508000AD0F7EE007A8EF3008C10B4F1EE10CA4FF6DA
S31508000AE06074C0F6FF740CEA040CE1EE10CA10BC80
S31508000AF0F4467447A40E0020B1F5002F0BD800F178
S31508000B007843B3F5002F06D8044B084498428CBFA7
S31508000B100020012070470020704700BF0000080829
S31508000B2038B54FF00065AB6A044603F17842B2F572
S31508000B30C04F12D21B6B03F17843B3F5C04F0CD2EA
S31508000B400648FFF705FDAB6A20461B6B5B689847AE
S31508000B50BDE838400148FFF75DBD38BD6811002083
S31508000B6013B54FF00064A36A019003F17842B2F519
S31508000B70C04F15D21B6B03F17843B3F5C04F0FD2A4
S31508000B800948FFF7E5FCA36A01211B6B01A89B69CD
S31508000B90984704460448FFF73DFD204602B010BDBD
S31508000BA04FF48174F9E700BF6811002070B54FF063
S31508000BB00066B36A044603F17842B2F5C04F0D46A3
S31508000BC014D21B6B03F17843B3F5C04F0ED2094814
S31508000BD0FFF7BEFCB36A20461B6B29469B699847FC
S31508000BE004460448FFF716FD204670BD4FF481748D
S31508000BF0FAE700BF6811002070B54FF00066B36AC7
S31508000C00044603F17842B2F5C04F0D4614D21B6B69
S31508000C1003F17843B3F5C04F0ED20948FFF798FCA5
S31508000C20B36A20461B6B2946DB6998470446044885
S31508000C30FFF7F0FC204670BD4FF48174FAE700BF59
S31508000C406811002038B54FF00065AB6A044603F119
S31508000C507842B2F5C04F13D21B6B03F17843B3F554
S31508000C60C04F0DD20848FFF773FCAB6A20461B6BD2
S31508000C701B6A984704460448FFF7CCFC204638BD53
S31508000C804FF48174FAE700BF68110020F8B54FF0F9
S31508000C900067BB6A164603F17842B2F5C04F0446B0
S31508000CA00D4611D21B6B7BB10948FFF751FCBB6A95
S31508000CB020461B6B324629465B6A98470446044819
S31508000CC0FFF7A8FC2046F8BD4FF40174FAE700BF09
S31508000CD06811002070B54FF00066B36A044603F148
S31508000CE07842B2F5C04F0D4614D21B6B03F1784318
S31508000CF0B3F5C04F0ED20948FFF72AFCB36A20465F
S31508000D001B6B29469B6A984704460448FFF782FCF2
S31508000D10204670BD4FF40174FAE700BF6811002041
S31508000D20F0B54FF00067BB6A164603F17842B2F594
S31508000D30C04F04460D46ADF5337D22D21B6B03F139
S31508000D407843B3F5C04F1CD20F48FFF701FCBB6AC6
S31508000D5020461B6B40F2C1225B6A01A998470446EC
S31508000D6030B10948FFF756FC20460DF5337DF0BD36
S31508000D70BB6A32461B6B2946DB6A01A898470446BC
S31508000D80EFE74FF40174EFE76811002010B54FF054
S31508000D900064A36A03F17842B2F5C04F12D21B6B06
S31508000DA003F17843B3F5C04F0CD20748FFF7D0FBE1
S31508000DB0A36A1B6B1B6B984704460348FFF72AFC7C
S31508000DC0204610BD0124FBE768110020F0B58FB05E
S31508000DD0044601A80E461546FFF7A2FE9DF80C30FC
S31508000DE0012B0DD129462046FFF786FE28B321465A
S31508000DF02A4630460EF0D4F8002420460FB0F0BD3F
S31508000E004FF00067BB6A03F17842B2F5C04F17D2BC
S31508000E101B6B03F17843B3F5C04F11D20A48FFF7AD
S31508000E2097FBBB6A2A461B6B314620465B6B984785
S31508000E3004460548FFF7EEFBDFE740F20244DCE72D
S31508000E4040F20114D9E700BF681100202DE9F041EE
S31508000E5090B0044603A81E460D461746FFF760FEE7
S31508000E609DF81430012B1BD1069BA34239D9204685
S31508000E7001A908F0DFFB044670B9029BAA199A4239
S31508000E8032D8AB4230D3B3422ED3019832463946D4
S31508000E902844FFF79BFF0446204610B0BDE8F081C2
S31508000EA04FF00068D8F8283003F17842B2F5C04F01
S31508000EB01DD21B6B03F17843B3F5C04F17D20D480B
S31508000EC0FFF746FBD8F828303A461B6B2946D3F875
S31508000ED00C8020463346C04704460648FFF79AFB6F
S31508000EE0DAE740F20144D7E740F20244D4E74FF488
S31508000EF08174D1E768110020F0B58FB0044601A8C7
S31508000F000E461546FFF70CFE9DF80C30012B1AD13C
S31508000F1029462046FFF7F0FD98B940F202442046DC
S31508000F200FB0F0BDE25801322AD104339D42F9D8F8
S31508000F302A463146204600F01BF90028EDD0002449
S31508000F40EDE70023F2E74FF00067BB6A03F178424A
S31508000F50B2F5C04F17D21B6B03F17843B3F5C04FF8
S31508000F6011D20A48FFF7F4FABB6A2A461B6B3146C8
S31508000F7020469B6B984704460448FFF74BFBCEE791
S31508000F8040F20344CBE740F20114C8E76811002099
S31508000F902DE9F04190B0044603A81E460D461746B3
S31508000FA0FFF7BEFD9DF81430012B1BD1069BA3420B
S31508000FB039D9204601A908F03DFB044670B9029BC1
S31508000FC0AA199A4232D8AB4230D3B3422ED30198EB
S31508000FD0324639462844FFF78FFF0446204610B0AC
S31508000FE0BDE8F0814FF00068D8F8283003F1784260
S31508000FF0B2F5C04F1DD21B6B03F17843B3F5C04F52
S3150800100017D20D48FFF7A4FAD8F828303A461B6BD2
S315080010102946D3F8108020463346C047044606487A
S31508001020FFF7F8FADAE740F20144D7E740F202445C
S31508001030D4E74FF48174D1E76811002070B58EB0FB
S31508001040044601A80D46FFF76BFD9DF80C30012BF1
S315080010501ED144EA0503C3F30C03002B34D12946F9
S315080010602046FFF749FD20B940F2024420460EB05B
S3150800107070BD2544204604F5005400F06BF8AC42D8
S3150800108002D00028F6D1EFE70028EDD00024EDE7DE
S315080010904FF00066B36A03F17842B2F5C04F16D234
S315080010A01B6B03F17843B3F5C04F10D20948FFF71D
S315080010B04FFAB36A29461B6B2046DB6B98470446F2
S315080010C00448FFF7A7FAD1E740F20444CEE740F216
S315080010D00114CBE76811002030B591B0044603A887
S315080010E0FFF71EFD9DF81430012B10D1069BA34275
S315080010F028D9204601A908F09DFA044620B9DDE959
S315080011000101FFF79BFF0446204611B030BD4FF0A2
S315080011100065AB6A03F17842B2F5C04F15D21B6B76
S3150800112003F17843B3F5C04F0FD20948FFF710FA19
S31508001130AB6A20461B6B5B69984704460448FFF771
S3150800114069FAE1E740F20144DEE74FF48174DBE730
S31508001150681100204FF4803208B5044B9A660EF0E9
S315080011603BF8B0FA80F0400908BD00BF0090005077
S31508001170134610B562B103439B070BD14FF4803475
S31508001180054B9C660EF02CF8B0FA80F0400910BDAD
S315080011900120FCE70020FAE7009000500348044AC3
S315080011A00449121A921008F048BB00BF80010008D3
S315080011B040030008C0130020044B054A9A60D3F880
S315080011C0882042F47002C3F88820704700ED00E0DA
S315080011D0000000082DE9F04F144605460E469B46CA
S315080011E0C36B87B001225B6902A960689847EB6BFD
S315080011F001225B6903A93046984702A809F064F8FA
S31508001200074648B10023A37563754FF0FF33A36003
S31508001210002007B0BDE8F08F03A809F062F80123A3
S31508001220A375237E04EBC303DE611F846368B342A0
S315080012300ED1206003A809F076F84FF0FF33207529
S31508001240A360237D043B022B26D80023A375DFE782
S3150800125023681A1A53425341A37503A809F063F881
S31508001260237D834218BFA77503A809F03EF80746F1
S3150800127002A809F03AF8874218BF002303A818BF46
S31508001280A37509F03AF8074602A809F036F8874226
S315080012901CBF0023A375D4E703A809F026F880B17C
S315080012A0EB6B022230465B6904A9984704A809F04B
S315080012B02BF80346207D032839D8DFE800F03838B4
S315080012C0040903A8F3E7CC22237E04EBC3031A849C
S315080012D001F09AFC109B187003A8277E08F0F9FF06
S315080012E004EBC70787F82200237E03A804EBC30391
S315080012F0B3F8209093F8227008F0F7FF804603A809
S3150800130008F0FBFF8246B8F1000F15D0EB6B0222FE
S3150800131030465B6904A9984704A808F0BAFF6075C7
S31508001320637D6BB90023A3754FF0000838E0227E71
S3150800133004EBC2021384CBE703A808F095FFEEE797
S3150800134094F81680B8F1000FEED0B9F1000F09D164
S31508001350DFB10123E375637E002B4FD1012F42D104
S31508001360677614E06B6C06EB0A02594286EA0200BD
S3150800137008421CBF0021A175591E0A409B1A9945AF
S31508001380D0D8A37D002BE3D1CEE7E37D43B94FF058
S3150800139000084B4652463146284608F096FBA060A0
S315080013A0A27D12B123694B4423611A49237E097829
S315080013B099422AD901332376BBF1000F27D032B3DD
S315080013C0E37D23B3B8F1000F21D1032F1FD0A16805
S315080013D04B1C1CD0109B2246009328460123FFF77E
S315080013E0F9FEA07513E095F8343063B9EB6A01335A
S315080013F0CFD1032FCDD10123A376C8E7012FCFD0B4
S31508001400032FC4D1F7E79846C3E70023A375A07D49
S31508001410FFE600BF58F200082DE9F04F0E46984641
S3150800142000238BB004464FF0FF31104617468DF85F
S31508001430133001F0D3FBB6F5801F3BD3B21C53D152
S31508001440E56A6B1C57D12046616A08F084FA05469E
S31508001450B31C18BF0123DFF810910193636A626C0D
S315080014600293236805A902FB053AE36B05225B692B
S315080014705046984705A808F0C2FF08F0E5FF504611
S3150800148008F0EDFF4FF0000B824601464B1C05D0D5
S31508001490636C81EA0A025B42134232D0294620462F
S315080014A008F059FA029BAB424DD0BBF1000F4DD163
S315080014B00546D3E7314605AA04F1080008F056FEAA
S315080014C00146481C10D0384601F088FB01223946EF
S315080014D020460DF1130308F04AFB28B19DF8133096
S315080014E088F80030002003E0237C002BA8D12D20AB
S315080014F00BB0BDE8F08F2368ED1A636CB5FBF3F506
S31508001500A6E7484601F06AFB0DF113034946204653
S31508001510019A08F02CFB034690B1B21C03D0D9F807
S315080015200020B2420CD19DF8132003930D4B88F886
S31508001530002049461A6838460DF032FD039B9B4643
S31508001540D9F80810A2E7BBF1000FD0D0B6F5801F76
S31508001550C8D2314698F800307A6804F1080001F0DC
S3150800156075FABFE754F20008BC1100202DE9F341D3
S315080015700446174698460E46194D816AE36A8B4219
S315080015802AD04B1C18E0284601F028FB01222946E0
S3150800159020460DF1070308F0EAFA30B1434629461A
S315080015A020469DF80720B847B0B1A9684A1C05D05F
S315080015B0012E0AD0E36A9942E5D10DE06968204612
S315080015C008F056FA012E0146D8D16B6881EA030263
S315080015D0636C5B421A42D1D002B0BDE8F08100BF0D
S315080015E0901100202DE9F04F4FF0FF334FF6FF72B0
S315080015F00025044600F10806C0E909238BB0C3623A
S315080016000562056330460F4608F081FD204608F05E
S3150800161072F920BB2046394608F0EDF9204608F055
S315080016206AF920BB5E200BB0BDE8F08FE26B236839
S31508001630606CD2F814C000FB0530052205A9E04706
S3150800164005A808F0DCFE012828D12946204608F01E
S31508001650A3F9421C2946204608F06CF90135E369CE
S315080016609D42E3D3204608F046F90028D2D000254B
S315080016704FF0FF394FF6FF73CA46A846C4E9085328
S31508001680E369984514D3A5EB0905012D36D84FF61D
S31508001690FF72636A934246D16720C4E708F0D9FE11
S315080016A00028DBD02946204608F076F90246D1E71D
S315080016B02368E26B606C576900FB0830052205A9B0
S315080016C0B84705A808F09BFE834605A808F06EFEF5
S315080016D00746584608F0B8FE68B1574538BFC4F8FB
S315080016E02480B94528BFB946BD4238BF3D46BA46EB
S315080016F0236A0133236208F10108C1E74FF6FF7335
S3150800170000256362E3699D42C1D2676C2068E36B7A
S31508001710052207FB05005B6905A9984705A808F097
S3150800172045FE0135EEE7E26B676C2068694607FB04
S31508001730030055690522A847684608F037FE626A1D
S315080017402368606C4B4D00FB023008F088FE4FF0B2
S31508001750FF33A062E3622A466FF00101204605AB1B
S31508001760FFF75AFE002846D1AD6829462046E562AD
S3150800177008F09DF8206320B92046E16A08F078F958
S31508001780E0622946204608F073F90546A36A9D4299
S3150800179033D1204608F05EF800278046B946E3694B
S315080017A099453CD3B84559D92046616A08F0D3F81B
S315080017B00026054604F1400AB74212D8626C23682F
S315080017C0694602FB0539E36B05225B69484698477B
S315080017D0684608F0EBFD534602464946E06B08F0BA
S315080017E040FE2946204608F0B6F80136B0450546BB
S315080017F0E2D1642017E7A56AB7E72946204608F02C
S3150800180056F8236B2946034407462363204608F007
S315080018102FF90546002FB9D1C4E90B07B6E7636C63
S315080018202568052203FB0955E36B05A95B6928466C
S31508001830984705A808F0E3FD08F006FE58B12846C3
S3150800184008F00DFE0146204608F031F8636C143B9B
S31508001850984208BF013709F10109A0E7304608F0A8
S3150800186056FC002320461946034AFFF77FFE002050
S31508001870D9E600BFE81100205D9B00082DE9F0417C
S31508001880036B9046826B07689A4288BF8363426CF3
S31508001890436A90B002FB0377C36B0E46052201A983
S315080018A05B6904463846984701A808F0A8FD012850
S315080018B00146307057D0656CE26B2368606AD2F8CF
S315080018C014C005FB0030052206A9E04706A808F063
S315080018D096FD01284FF0000523D0D4E90A320121EC
S315080018E09342CDE90B458DF834800E958DF83C1062
S315080018F02AD11946204608F0BBF8236B626C1433CC
S315080019009B1AE06223630C9B53B99DF83C303BB1AC
S31508001910626A616C2368E06B01FB023108F027FDFF
S315080019200C9DE36B05225B6901A93846984701A817
S3150800193008F065FD30702846236BA26B9A4288BF73
S31508001940A36310B0BDE8F081237C33B91C490BAA08
S3150800195004F1080001F0C8F8D5E72046194A0BAB90
S31508001960FFF704FECFE7237C23BB2246164904F182
S31508001970080001F0B9F8616A204608F00DF8616AB6
S31508001980421C204607F0D6FF054620B9236B626C39
S315080019901344143B23632046A16A08F069F82368B8
S315080019A0A062C01A636CB0FBF3F06062204608F0D0
S315080019B0A2F8B6E700232046044AFFF7D7FDDAE780
S315080019C051210008CD200008F79B0008939B0008CA
S315080019D073B50D46D11E4A421C461B7E4A419A42A1
S315080019E026D129682368994222D3636899421FD869
S315080019F0114E0DF107033246FFF70EFDC0B97268A6
S31508001A006B689A4214D19DF80730DA1E5342534147
S31508001A10227E93420CD1636901336361D4E90323BF
S31508001A20934205D22968A26842F82310013323613C
S31508001A30012002B070BD00BFE81100202DE9F04F6B
S31508001A409A468BB09DF85030DFF850B10293DBF818
S31508001A501030804653450D461646C0F09980D1464B
S31508001A60DBF804300193B9F1000F00F08D80D8F847
S31508001A703C3001225B6907A90198984707A808F036
S31508001A8030FCDBF80030984240F0858007A808F063
S31508001A9034FC0428074614D107A808F035FC019B36
S31508001AA0029A04463B44002A3FD1864212D914467C
S31508001AB0361A4046019907F0DBFFA9EB04090190A5
S31508001AC0D1E7D8F83C3002225B69019808A9984703
S31508001AD008A8E2E7841B544528BF5446032C03EBA9
S31508001AE00607AAEB040A4FEA94021CD9D8F83C3038
S31508001AF0294638465B69984724F0030304F0030631
S31508001B001F441D44002ED4D0D8F83C3001225B690E
S31508001B1008A9384698473246284608A935440DF09C
S31508001B203FFA0026C5E72646ECE7074600F003021B
S31508001B30039203442A1804920593049BDD1B059B14
S31508001B40D81B039B9F420FD1002FB2D0D8F83C3048
S31508001B50012208A95B6998473A46284608A90DF064
S31508001B602CFA78B93D44A4E7D8F83C30012208A9F4
S31508001B705B6998470422284608A90DF01EFA08B999
S31508001B80043FDAE74FF0360948460BB0BDE8F08F58
S31508001B904FF06309F8E74FF06F09F5E714120020D4
S31508001BA02DE9F0410F4616469846044688B060B3BC
S31508001BB090F83450FDB1012107F092FE00210E9BEA
S31508001BC0CDE90511CDE902379DF83C30CDF8048002
S31508001BD08DF81C30237C04968BB90D4901AA04F1B3
S31508001BE0080000F081FFDDE90553E06B002E08BF11
S31508001BF01D4608F00EF8284608B0BDE8F0812046D4
S31508001C00044A01ABFFF7B2FCEDE70546F3E700BF70
S31508001C10C19B0008D11900087FB590F842600446B8
S31508001C2001920DF10B030A463046124907F0F9FFF7
S31508001C30012E0546E36B19D132465B6903A998471D
S31508001C409DF80B10039B019A59B19BB243EA0243D4
S31508001C50012228460393E36B03A99B69984704B0BE
S31508001C6070BD1B0C1B0492B21343F1E701229B695A
S31508001C7001A9F3E7141200202DE9F04F99B00F4699
S31508001C8009920A69416C0E931439D31DB3FBF1F31B
S31508001C90013302EBC302036B04469342C0F0B381DF
S31508001CA00023DFF824940D93E36A48461946079300
S31508001CB000F094FFD7E9033604930E9B022B4ED10E
S31508001CC0CC2E40F08A81099B002B42D0394620460B
S31508001CD007F0FDFF656C079A6B1E13401490ED1A0A
S31508001CE0E36B01225B6916A97868984716A808F07D
S31508001CF0FCFA00280CBF04230823782E06933DD946
S31508001D00012300254FF0080A05933B6805990E98AC
S31508001D10C9F80030C9F8106008F009FB4FEA9A03C1
S31508001D2010930023DDF81CB089F814000B930F9369
S31508001D3008930C93616C4A1E0BEA02028B1A002E5A
S31508001D4038D05544AB4240D8236B5B1A13442363FF
S31508001D50ABE0049B1B68149308230693D0E7656CD5
S31508001D60079A6B1E1340782EA5EB030516D8FB7D44
S31508001D707BB9099B002BB3D104230693331DAB42D1
S31508001D8010D9A6B1082DBBD804250023AA46059369
S31508001D90BBE7099B002BA3D10823EEE7099B002B81
S31508001DA09ED1D9E7002505954FF0040AADE704252D
S31508001DB00596F9E75345C7D3B0460BEB0A030393D9
S31508001DC0089B002B18BF032313E0A3EB0A039E42CC
S31508001DD0B0460BEB0A0228BF98469E420392EFD9FB
S31508001DE00123D9F8102089F81730964271D1C9F81D
S31508001DF004B0089399F81730002B6CD099F818207E
S31508001E000899D31C09EBC3030132C3F804B0A3F83D
S31508001E100880997289F81820B8F1000F14D00E9B23
S31508001E20022B5BD10B9B7BB90F9B4344032B0BD92E
S31508001E30E36B01229B69039814A998470546002875
S31508001E4040F0E38001230B93089B16A80193059B9A
S31508001E50009399F814204346396800F075FEE36B41
S31508001E6058469B69109A16A99847051E0D9B18BFD8
S31508001E705B4652460D9359464346204607F025FED3
S31508001E80236B08F10302A3EB0A0322F003029B1A51
S31508001E90C9F808002363002D40F0B7800F9BDDF8D2
S31508001EA00CB04344A6EB08060F935946204607F0A4
S31508001EB0DFFD00258346002E7FF43CAF824A396851
S31508001EC0936804F10800E36252680E9B00F0BEFDB9
S31508001ED084E002238DE7C9F804B09DE7099B002B2F
S31508001EE030D1049BB8F1030F43440A9327D9DDE99F
S31508001EF00301E36B4FEA98029B6998470546002859
S31508001F0065D118F003025FD0049B28F003052B4423
S31508001F100493039B1D444FF0FF33049915A81593AA
S31508001F200DF03EF8E36B28469B69012215A99847F0
S31508001F3005460A9B0493002D86D0039B99E74246E3
S31508001F40039DE8E7039B0A9307F120031193FB7DA2
S31508001F5078689BB100233D7E0C9AD9B28D4211D97F
S31508001F60119903F1010C31F83310914226D90699DB
S31508001F7007EBC303D8690A44104403E00C9B069A8E
S31508001F8013441844E36B01225B6915A99847159B0E
S31508001F90012213930C9B0A9804330C93E36B13A941
S31508001FA09B699847039B0A9A43449B1A042B054648
S31508001FB007D978B9134604330A93C8E76346521A11
S31508001FC0CBE70A9B0393B6E70A9B04933CE70A9B75
S31508001FD00493B2E70A9B0393AFE77026304619B01D
S31508001FE0BDE8F08F4FF0000A4FE03A69616CD31DE7
S31508001FF01439B3FBF1F3013302EBC302236B9342AB
S31508002000BFF452AE5DE01C26E8E73D2D59D104F138
S31508002010080303932368079A606CA2EB030ABAFBCA
S31508002020F0FA00FB0A3008F01AFAE16A8046204600
S3150800203007F01EFDA26A8242D7D0626CD9F8083032
S31508002040511E0B40216B2668891A0B4423630D9B8E
S31508002050E0629E1BB6FBF2F6B245C3D1079BB3EB13
S31508002060080A12D0E36B4FEA9A0241469B699847E1
S315080020708346E36A079A5344E362236B03989B1AE1
S315080020804344236308F043F8DA462368616CE06B3F
S3150800209001FB063108F058F9204607F02CFC2046CB
S315080020A007F029FD2063BAF1000F9ED03A69616CEA
S315080020B0D31D1439B3FBF1F3013302EBC30290428B
S315080020C0A8D22E468AE700BFBC110020032A2DE9B4
S315080020D0F34106460D4617461C4606D1237A012BC0
S315080020E023D0012002B0BDE8F081DFF860800968DE
S315080020F042460DF10703FFF78FF960600028EDD11E
S315080021009DF80720237A032AE8D0D8F804106A68CD
S315080021109142E3D1012B2969D4F80CC007D1726921
S315080021200CEB0103934202D92074207CDAE70831CC
S315080021306144E1603B46012229463046FFF79CFD93
S3150800214060600028CAD00020CCE700BFE811002054
S315080021502DE9F341089C032A1746266806D1237AF7
S31508002160012B24D0012002B0BDE8F081DFF8908071
S31508002170304642460DF10703FFF74EF96060002826
S31508002180EDD12568D8F80400A96AD5F844C04840B6
S31508002190CCF100031840227AE1D1012A09D1E2687C
S315080021A0D8F8103013447269934202D92074207CFF
S315080021B0D9E72868EB6A1B1A081AB3FBFCF3B0FBCD
S315080021C0FCF083420BD1706CF36A421E1340326BEB
S315080021D0121A13442846336307F04AFCE862D8F813
S315080021E01020E36808321344E36001223B460449A1
S315080021F02068FFF741FD60600028B0D00020B2E7F4
S31508002200E81100202DE9F0410025634B0E46D3F86E
S31508002210008004461D6018B921252846BDE8F081CE
S3150800222090F8347007B30A6803689A4240F0AA80A7
S315080022304A6843689A4240F0A5808A6883689A4249
S3150800224040F0A080CA68C3689A4240F09B800A6939
S3150800225043699A4240F096808A69C36B9A4240F075
S3150800226091804B698361D8E768223946856B0CF003
S31508002270CEFED6E90212336804F1080023607368BB
S31508002280A5636360336963617369A36107F051FFEE
S31508002290B36904F14000E3639B68984720B9676C0B
S315080022A017B16368B3FBF7F794F84330E761002B7F
S315080022B0B2D00023656C2366002D6BD0002F69D041
S315080022C02368B3FBF5F205FB1233002B5CD1676874
S315080022D0B7FBF5F605FB1676002E55D1204607F016
S315080022E0D6FAA369043303449F424FD340F63472A7
S315080022F06369CC3B93424BD8B5F5805F4AD303213B
S31508002300204607F0EDFAD4E90001E36B1B6898470D
S315080023100546E36B0220DB6898472DB184F83460E4
S31508002320E06B07F076FC78E741462046FFF75AF956
S315080023306428054604D141462046FFF753F9054669
S31508002340636C143BD5B9226A204602FB03F607F0F4
S315080023509EFAA369043303449E4203D284F8345098
S315080023605A25DDE70123D4E900010C4A84F8343004
S3150800237013680133136007F076FFD1E7002384F86A
S315080023803430CDE75D2548E7592546E75A2544E721
S315080023905F2542E75B2540E78C1100208811002065
S315080023A008B578B190F8343073B10023074A80F83D
S315080023B034301368013B136013B9C36B5B689847E5
S315080023C0002008BD2120FCE71120FAE7881100202B
S315080023D02DE9FF410C4616461F46054680B390F880
S315080023E034307BB3B1F5801F2ED2DFF8608001212F
S315080023F007F076FA2146424628460DF10F03FFF705
S315080024000BF8044670B99DF80F30012B11D1D8F896
S315080024101030BB4212D10246009031462846FFF7DB
S315080024200DFB0446E86B07F0F4FB204604B0BDE854
S31508002430F081022B14BF2D246024F3E76324F1E70F
S315080024402124F2E71124F0E72924EEE714120020EC
S315080024502DE9F04385B00C4617461E460546DDF8BD
S31508002460308098B390F8343093B3B1F5801F31D2E9
S31508002470DFF86490012107F033FA21464A462846D8
S315080024800DF10F03FEF7C8FF044688B99DF80F3013
S31508002490012B14D1D9F8102006EB08039A4213D35E
S315080024A000904346324639462846FFF7C7FA04469F
S315080024B0E86B07F0AEFB204605B0BDE8F083022BBB
S315080024C014BF2D246024F3E76324F1E72124F2E7FF
S315080024D01124F0E72924EEE71412002073B50C4600
S315080024E01646054630B390F834302BB3B1F5801F45
S315080024F024D2012107F0F4F921462846104A0DF1A5
S315080025000703FEF789FF044680B99DF80730032BB9
S315080025100CD0022B0CD12846094907F0D8FB3060AD
S31508002520E86B07F076FB204602B070BD2D24F7E76E
S315080025306124F5E72124F6E71124F4E72924F2E7D4
S31508002540141200202DE9F3411F4600230C461646B7
S3150800255005463B6050B390F834304BB3B1F5801F55
S3150800256028D2DFF85480012107F0BAF921464246FD
S3150800257028460DF10703FEF74FFF0446A0B99DF85C
S315080025800730032B10D0022B0AD101233360042312
S315080025903B60E86B07F03DFB204602B0BDE8F081E2
S315080025A0D8F810303060F3E72D24F2E72124F3E75A
S315080025B01124F1E72924EFE71412002073B5044625
S315080025C0056B07F064F9636E03449D422CBF002334
S315080025D00123854294BF00252D1A207C84F85030AB
S315080025E0656584F85800A8B100230C4E1A461946AA
S315080025F02046009607F038FC002305461A46194679
S315080026002046009607F039FCE3682844984294BFB0
S315080026100020C01AE06502B070BD00BFFFFF0F00C2
S315080026202DE9F3471E4643690446B34288461746D2
S315080026309DF828904ED300258DF80750204607F0C0
S3150800264026F9D4F830A082450AD2236AB5EB430F9F
S3150800265006D2002220460DF10701FFF70FF9B8B39D
S315080026609DF80730012B05D1002220460DF1070100
S31508002670FFF704F9B9F1030F06D03146204607F0F3
S31508002680F6F8256B854227D3144D4FF0FF312846BF
S3150800269000F0A4FA4B46294600222046C5E90376EF
S315080026A0C5F80080FFF7E8FA236E054663B12046B1
S315080026B0FFF784FF94F8503013B994F858301BB1DB
S315080026C0236E04F150009847284602B0BDE8F0870B
S315080026D00135B3E76225F7E71C25F5E7E811002081
S315080026E02DE9FF410F4690461E46054698B390F8D9
S315080026F0343093B3B1F5801F31D21A4C022107F05A
S31508002700EFF82246394628460DF10F03FEF784FEF8
S31508002710024678B101234246009339463346284695
S31508002720FFF77EFF0446E86B07F073FA204604B00D
S31508002730BDE8F0819DF80F30012BEBD12169B1423C
S31508002740E8D10093414633462846FFF777F9044611
S315080027500028DFD1E7E72124E8E71124E6E7292462
S31508002760E4E700BF141200202DE9F04790F8426014
S3150800277086B0012E05460391A1EB020715D1B7F5E0
S31508002780807F28BF03264FF0640800244FF6FF79A0
S31508002790DFF840A195F84230012B14BF3223642399
S315080027A09C420AD35FFA88F415E0B7F5803F34BF38
S315080027B0012602264FF03208E7E705AB22465146C6
S315080027C0284607F062FA95F84230012B059B34D16A
S315080027D04B452DD1E4B295F84230012B0CBF64224B
S315080027E03222121BB24217D3012E39D10022012BF5
S315080027F005978DF8132027D1082205A90DF1130096
S3150800280007F049FE9DF81330059A42EA032221464D
S315080028102846FFF701FA40B102232E4900932846BD
S31508002820CC23096803AAFFF7FBFE06B0BDE8F087CC
S31508002830DBB203B902340134ACE7591CCAD09BB2E7
S31508002840002BF8D10134F6E7102205A90DF1130083
S3150800285007F021FE9DF81330059A42EA0342D6E7AF
S31508002860039A012B059223D10823202205A90DF1ED
S3150800287013008DF8133007F00EFE9DF81320120290
S3150800288021462846FFF7C8F995F84230611C012B06
S31508002890C9B21AD10028BFD12846BDF81420FFF7BF
S315080028A0BBF90028B8D10234BDF81620E1B2AFE76B
S315080028B01023202205A90DF113008DF8133007F017
S315080028C0EAFD9DF813201204DAE70028A4D1059A38
S315080028D09EE700BF1412002070B586B00E46054666
S315080028E00392A0B390F834309BB3B1F5801F32D26F
S315080028F0022106F0F5FF31462846184A0DF117035E
S31508002900FEF78AFD044618B99DF81730032B0ED139
S315080029100223314600932846CC2303AAFFF780FEFC
S315080029200446E86B07F075F9204606B070BD022B21
S315080029300BD10A49284607F0CAF90399024681428B
S31508002940EFD02846FFF710FFEAE76124E9E72124DC
S31508002950EAE71124E8E72924E6E700BF1412002075
S31508002960F7B50C461646054668B390F8343063B397
S31508002970B1F5801F2BD2022106F0B2FF2146284668
S31508002980144A0DF10703FEF747FDC0B99DF8073055
S31508002990032B14D0022B14D10E49284607F097F9B9
S315080029A0471C024639462846FFF7DEFE044606B1AE
S315080029B03760E86B07F02DF9204603B0F0BD2D24EB
S315080029C0F7E76124F5E72124F6E71124F4E729243B
S315080029D0F2E700BF1412002030B50C46054685B054
S315080029E028B390F8343023B3B1F5801F23D20221DF
S315080029F006F076FF0DF10F03214628460F4AFEF72B
S31508002A000BFD034688B99DF80F20032A0DD0032233
S31508002A102146009202462846FFF702FE0446E86B66
S31508002A2007F0F7F8204605B030BD2D24F7E7212436
S31508002A30F8E71124F6E72924F4E700BF141200206A
S31508002A40014B1860704700BF8C1100202DE9F04338
S31508002A50466886B3056898464FF0000CA946AE4608
S31508002A6055F83C400CF1010CC4F31307013401D0AE
S31508002A70B94217D066450EF1080EF1D12F4600244B
S31508002A8003E0A64207F1080712D055F8343001349E
S31508002A900133F6D1C1F3130141EA0851C7E900121F
S31508002AA0BDE8F08341EA0851CEE90012BDE8F0839B
S31508002AB0B8F1030F03D101230372BDE8F0830023A5
S31508002AC003E09E4209F10809F5D055F83340013371
S31508002AD0C4F30754032CF4D1C1F3130343EA085390
S31508002AE0C9E90032BDE8F0832DE9F04106464068A1
S31508002AF082B0C0B10F4690460024336853F834506C
S31508002B0003EBC403C5F30752C5F31301013504F1FA
S31508002B10010406D05B683046CDF80080B84710B18E
S31508002B2070688442E9D302B0BDE8F08108B50CF0BC
S31508002B30C2FA014B186008BD40120020014B186804
S31508002B400CF0B4BA4012002073B504462248012A94
S31508002B5000EAC1119DF8185023F07C4007D9961E4B
S31508002B60012E28D9073303F07F03194308E09DF89F
S31508002B701C300A43DB0603F0C053134343F060419D
S31508002B800023C4E900108DF80730B5B1202221468C
S31508002B900DF1070007F07FFC1A220DF10700211D31
S31508002BA007F079FC082063689DF8072043EA8263EA
S31508002BB0636002B070BD1143E2E71B220DF1070006
S31508002BC0214607F068FC23689DF80720042043EA9D
S31508002BD0C2632360EDE700BF80FFFF0738B5094BE6
S31508002BE00D461A68002104460CF011FA00234FF02E
S31508002BF0FF322383C4E900252361A260E382A3761A
S31508002C0038BD00BF54F200080138C0B205289ABF83
S31508002C10014B185C0120704759F200082DE9F04174
S31508002C200746154600240E46596888B0490A012900
S31508002C3022464FEA510104F10104F8D8DC78997864
S31508002C4024031B88C90201F4006104F480540C4370
S31508002C50C3F30A035203234492B24FF000089C18A8
S31508002C60274B6FEA0444039325F07843ED4302A902
S31508002C700DF107001B2202938DF8078007F00BFC65
S31508002C809DF80720029B02A943EAC2630DF10700DB
S31508002C901B2225F07845049302958DF8078007F0E6
S31508002CA0FAFB9DF80720029B6FEA144443EAC263C5
S31508002CB005934FF0FF330794069307A9BB690122D2
S31508002CC006F110009847BB6905A90446012206F1DA
S31508002CD008009847BB69404518BF044604A9012265
S31508002CE0301D98470122404518BF0446BB69304647
S31508002CF003A99847404508BF204608B0BDE8F081BB
S31508002D0001009AB2430905D0012B0CD0022B084BBF
S31508002D1018BF002300F01F0039B103F580530122C4
S31508002D2082401A607047034BF4E703F50053F6E751
S31508002D3068800050648000504FF48032054B9A66D4
S31508002D4041F67132044BDA63012203F50053DA6067
S31508002D50704700BF009000500000034041F67132F2
S31508002D600121064BDA6303F50052D1600022DA63CB
S31508002D704FF48032024B9A66704700BF000003404A
S31508002D8000A000504FF48032064B5A66064B9B69EA
S31508002D90C3F38512827003F03F021B0B4270037067
S31508002DA0704700BF0090005000C007400120034B49
S31508002DB09B680A3303F01F03984070470080E00FB2
S31508002DC02DE9F0418CB08846DDE912761D460446A9
S31508002DD0002847D0002945D0002F43D0002E41D0E7
S31508002DE013F00F033ED120482049A360002A08BFEC
S31508002DF001462362C4E90013404609A907F02FFCDF
S31508002E0068BB204609990CF09DF9294620460CF026
S31508002E1099F96946404601F04BF800BB69462046D9
S31508002E2007F033FE404603A907F000FDB8B920466F
S31508002E3003A907F02AFE06970127204645F0005504
S31508002E4006A90797089507F020FE204609A90996BE
S31508002E500A970B950CF09CF920460CF0E1F80CB09B
S31508002E60BDE8F0812120FAE7000100040001010411
S31508002E702DE9F0418CB0884616461D460446129F39
S31508002E8000284BD0002949D0002A47D0002F45D02A
S31508002E900B68103B102B41D8214A22FA03F3D907B5
S31508002EA03CD500231F4A8360C0E90023036209A9B1
S31508002EB0404607F0D4FB70BB204609990CF042F94E
S31508002EC0294620460CF03EF96946404600F0F0FFD8
S31508002ED008BB6946204607F0D8FD404603A907F017
S31508002EE0A5FCC0B9204603A907F0CFFD0696012622
S31508002EF0204606A945F000550796089507F0C5FD32
S31508002F00094B204609A909970A960B930CF040F934
S31508002F1020460CF085F80CB0BDE8F0812120FAE7D0
S31508002F20010101000000040410000020F0B50C4661
S31508002F3017461E46054695B0002874D0002972D05B
S31508002F40002A70D0002B6ED0036B0F2B5BD80023A2
S31508002F50364A3846C4E90023A360236211A907F05C
S31508002F607EFB00285BD1204611990CF0EBF8296B03
S31508002F7020460F2984BF01F00F0110310CF0E2F84A
S31508002F80384602A900F094FF002848D1204602A935
S31508002F9007F07BFD384605A907F048FC00283ED116
S31508002FA0204605A907F071FD0122214B08950992D3
S31508002FB00A932B6B05F1100003F00F0141F0005145
S31508002FC00B900F2B0C920D910E900F9243F000521E
S31508002FD0109226D90A9B08A923F0005320460A9383
S31508002FE007F053FD0BA9204607F04FFD0123119664
S31508002FF012930F4B204611A913930CF0C9F82046DB
S315080030000CF00EF80BE000F120030190009301226A
S31508003010102339462046FFF7D3FE002897D015B06F
S31508003020F0BD0EA9DFE72120F9E700BF0000040480
S31508003030100000202DE9F04F9BB00C4690461F4625
S315080030400546DDF89090002800F0B280002900F0CF
S31508003050AF80002A00F0AC80002B00F0A980026B3C
S3150800306002EB09031B09B3EB121F02F00F0600F06F
S31508003070978000234F4A8B60C1E900230B624046C4
S3150800308017A907F0ECFA0346002840F0858006EBFE
S31508003090090B204617992BF00F0A0CF053F85146E6
S315080030A020460CF04FF8404602A900F001FF0346FF
S315080030B0002871D1204602A907F0E7FC404605A979
S315080030C007F0B4FB0346002866D14FF001080190CB
S315080030D005A9204607F0D9FC374A204608A90895CD
S315080030E0CDF824800A9207F0D0FC46F00051AAEBEE
S315080030F0060605F1100346F000560B93CDF830800E
S315080031000D910E97CDF83C8010960D99204621F02A
S3150800311000510D910BA9009307F0B7FC20460EA9A4
S3150800312007F0B3FC019B244A1193AAF1100343F05C
S315080031300053CDF84880139305F120031493CDF876
S3150800314054801692139B204643F080431393139B97
S3150800315011A923F0005313930CF01AF8204614A96A
S315080031600CF016F8144A17A920461795CDF8608072
S3150800317019920CF00DF820460BF052FFAAEB0B0142
S3150800318049440190ABEB0A02009839440BF008FF5A
S31508003190019B2A6B4A442A6318461BB0BDE8F08F88
S315080031A010304A46394630440BF0FAFE0023F0E761
S315080031B02123F1E703020004100000202DE9F04F57
S315080031C09BB00D46DDE9296A90461F460446DDF8A0
S315080031D09C90002800F02481002900F02181249B7E
S315080031E0002B00F01D812B9B002B00F01981B9F1F3
S315080031F0000F03D0269B002B00F0128137B1289BC5
S31508003200002B00F00D81002E00F00A81AAF10403BC
S315080032100C2B00F20581259B0C2B40F001812B68B5
S31508003220103B102B00F2FC807F4A22FA03F3D907E1
S3150800323040F1F680B8F1010F7CD17C4B284643EA71
S315080032400A232360002316A9C4E90133236207F081
S3150800325006FA8346002840F0DF80204616990BF0D0
S3150800326071FF494620460BF06DFF394620460BF0A4
S3150800327069FF284604A900F01BFE8346002840F093
S31508003280CB80204604A907F000FC284607A907F0CA
S31508003290CDFA8346002840F0BF80204607A907F0EC
S315080032A0F4FB249B20460A93614B0AA9CDF82C808F
S315080032B00C9307F0EAFB269B20460D930DA949F0CF
S315080032C00053CDF838800F9307F0DFFB289B204684
S315080032D047F0005B10A91093CDF84480CDF848B0AC
S315080032E007F0D3FB2B9B2046139313A94AF00053F0
S315080032F0CDF85080159307F0C8FB1696CDF85C807C
S31508003300CDF860B01EB9189B43F080431893204649
S3150800331016A90BF03DFF20460BF082FE834638B116
S315080033202C2805D03A46002130460BF070FE73E093
S315080033302896002600233F4A0DF15808414628469C
S31508003340C4E90023A360236207F089F983460028AD
S3150800335062D1204616990BF0F5FE494620460BF039
S31508003360F1FE394620460BF0EDFE284601A900F08D
S315080033709FFD834600284FD1204601A907F085FB0B
S31508003380284604A907F052FA8346002844D10125A5
S31508003390204604A907F079FB249B20460793244B73
S315080033A007A90895099307F070FB269B20460A9300
S315080033B00AA949F000530B950C9307F066FB289B66
S315080033C047F0005920460DA90D930E95CDF83C906F
S315080033D007F05BFB10961195CDF848901EB9129B25
S315080033E043F080431293204610A90BF0D1FE012327
S315080033F0CDF84C801493104B204613A915930BF067
S31508003400C7FE20460BF00CFE834600288AD152469A
S3150800341041462B980BF0C4FD58461BB0BDE8F08F0B
S315080034204FF0210BF8E700BF01010100000003047B
S315080034300C00002000000204100000202DE9F04FC7
S3150800344097B00D46DDE9249716469A460446DDF8F8
S315080034508880002800F0A380002900F0A080002BB7
S3150800346000F09D80269B002B00F09980B8F1000F94
S3150800347003D0219B002B00F092803EB1239B002BAA
S3150800348000F08D80B9F1000F00F089803B1F0C2BEE
S3150800349000F28580209B0C2B40F081802B68103B26
S315080034A0102B7CD83F4A22FA03F3DB0777D53E4B2D
S315080034B0284643EA07232360002313A9C4E90133F6
S315080034C0236207F0CCF88346002864D12046139976
S315080034D00BF038FE414620460BF034FE31462046B6
S315080034E00BF030FE284601A900F0E2FC83460028CE
S315080034F051D1204601A907F0C8FA284604A907F0C1
S3150800350095F98346002846D10125204604A907F0E7
S31508003510BCFA264B204607A9CDF81CA008950993A6
S3150800352007F0B3FA219B20460A930AA948F00053EC
S315080035300B950C9307F0A9FA239B204646F00058F2
S315080035400DA90D930E95CDF83C8007F09EFA269BA3
S31508003550204647F0005710A910931195129707F0C7
S3150800356094FACDF84C901495CDF85480B9F1000F23
S3150800357003D1159B43F080431593204613A90BF0FE
S3150800358007FE20460BF04CFD834620B1324600214B
S3150800359048460BF03CFD584617B0BDE8F08F4FF093
S315080035A0210BF8E701010100000003040C000020CC
S315080035B02DE9F04F91B0884691469B4605461A9CE0
S315080035C0DDF874A0002800F08A80002900F08780C2
S315080035D0002A00F08480002C00F08180BAF1000FE8
S315080035E002D01C9B002B7AD01B9A0C2A77D1482232
S315080035F0002128460BF00BFD002785F841B0C5F8D9
S3150800360008A005F11006BAF1000F5ED0012235496F
S315080036101C9B0194029203914AF00051049305926F
S31508003620069107960892304A30490992304A484628
S31508003630BBF1010F08BF0A46C8F80870C8E9002799
S31508003640C8F820700DA907F00AF80446A8BB40463A
S315080036500D990BF077FD514640460BF073FD214658
S3150800366040460BF06FFD48460AA900F021FC0446C7
S3150800367018BB40460AA907F008FA48460DA907F0FC
S31508003680D5F80446C8B940460DA907F0FEF94046E4
S3150800369001A907F0FAF9404604A907F0F6F94046E9
S315080036A007A90BF075FD40460BF0BAFC044640B17D
S315080036B02022394630460BF0AAFC204611B0BDE858
S315080036C0F08F85F842000024F7E723682B616368CA
S315080036D07360A368B360012385F84230F3E72124B9
S315080036E0EBE700BF0C0000202000002001000304C7
S315080036F0010002042DE9F04F97B0054691461E4693
S315080037000C46DDF888A029B94FF0210B584617B0AA
S31508003710BDE8F08F002AF7D00028F5D0002B36D068
S31508003720209B002BF0D0219B002BEDD0BAF1000F87
S31508003730EAD0D0E9003200279B1952F10002CAF8F4
S31508003740007028BF0127002FDED16FF01F019942B4
S315080037504FF00F039341D7D390F84080B8F1000F8C
S3150800376000F0BB8000F13003039303EB080008EB7D
S3150800377006030F2B0ED8324620990BF011FC95F84C
S3150800378040303344DBB285F84030CAF800704FF059
S31508003790000BBBE7C8F11003DBB21A462099019368
S315080037A00BF0FEFB95F842109E489F4A05F1100360
S315080037B00493002908BF0246029301230593069243
S315080037C0039ADFF870C20792219A0893CDF824C0AD
S315080037D00A92029A0B93CDF830C00D92934A0E9333
S315080037E00F90934B95F84100A760012808BF134630
S315080037F000290CBF0322012213434846C4E90037B7
S31508003800276213A906F02BFF834600287FF47EAFB4
S31508003810204613990BF096FC394620460BF092FC8D
S31508003820102120460BF08EFC484610A900F040FBFC
S31508003830834600287FF46AAF204610A907F025F9C9
S31508003840484613A906F0F2FF834600287FF45EAFC8
S31508003850204613A907F019F9204604A907F015F917
S31508003860204607A907F011F920460AA90BF090FC93
S3150800387020460DA90BF08CFC20460BF0D1FB8346A5
S3150800388028B12022394602980BF0C1FB3EE7D5E95C
S315080038900032103342F10002C5E90032219B85F857
S315080038A0427010332193019BF21A0F2A0BD819463E
S315080038B0209B039819440BF073FBA6F110034344AD
S315080038C01027DBB25FE7164685F84070DAF8003055
S315080038D0DDF804801033CAF80030209B16F00F027A
S315080038E003EB080B10D0102E05F13000F7B240F2AA
S315080038F0868026F00F0606EB0801194407F00F0725
S315080039000BF04EFB85F84070D5E90021921941F17C
S31508003910000195F84200C5E90021DFF808C14249CF
S315080039200122002808BF614605F110070497059291
S315080039300691219946F00053CDF81CB008920993D8
S315080039400A9195F841100B920C930D97384B0E92ED
S31508003950364A4FF00008012908BF134600280CBF55
S315080039600322012213434846C4E901882360C4F8A8
S31508003970208013A9CDF83CC006F071FE83460028C6
S315080039807FF4C4AE204613990BF0DCFB594620465B
S315080039900BF0D8FB314620460BF0D4FB484610A95D
S315080039A000F086FA834600287FF4B0AE204610A9B8
S315080039B007F06BF8484613A906F038FF8346002837
S315080039C07FF4A4AE204613A907F05FF8204604A9A1
S315080039D007F05BF8204607A907F057F820460AA91A
S315080039E00BF0D6FB20460DA90BF0D2FB20460BF0B8
S315080039F017FB834668B120224146384644E73246DB
S31508003A0059460BF0CDFA002385F84070CAF8003005
S31508003A10BDE6DAF800203244CAF8002085F84200EC
S31508003A20B5E600BF200000200C00002000000304BB
S31508003A3000000204100000202DE9F04FA5B09146C1
S31508003A40054698460C469DF8B8A02F9A002900F01E
S31508003A501681B9F1000F00F01281002800F00F81DD
S31508003A60002B00F00C81AAF104030C2B00F207814D
S31508003A7090F84060102E34D1D0E900310027FF18A5
S31508003A8095F8420041F10001C5E9007195F841B089
S31508003A9005F1300E05F110030890002847D0BBF158
S31508003AA0000F2AD10F2E88BF20AA0C21CDE904E2E7
S31508003AB00022CDE90031204633464946CDE906A81D
S31508003AC0CDE90222FFF77AFB074640B30021319B76
S31508003AD05246404619700BF09AFA384625B0BDE8AA
S31508003AE0F08F9DF8C0309E4200F2C980D0E90031BF
S31508003AF016F00F0718BF3746C1E70F2E88BF20AA52
S31508003B00CDE903E20022CDE901220C2249460092C2
S31508003B1020463246CDE905A8FFF790FCD4E70F2EDC
S31508003B2003D8319B00271E70D7E70026F9E7E86817
S31508003B30CDF82CE00990A868102E4FEA507C099819
S31508003B404CEAC00C9CFA8CF02090A8684FEAC0009A
S31508003B5000BA21904FEA577040EAC1004FF00101C0
S31508003B6000BA229046F000500C910D900E93454BEA
S31508003B700F91109320AB11934FEAC707424B3FBAF8
S31508003B8012912397139314921591169005D1089BB9
S31508003B901493169B43F0804316930123CDF85C805B
S31508003BA018934AF00053394A1993394B4846BBF1E2
S31508003BB0010F08BF134643EA0A2343F002032360B2
S31508003BC000231DA9C4E90133236206F048FD074610
S31508003BD0002882D120461D990BF0B4FA39462046B2
S31508003BE00BF0B0FA314620460BF0ACFA48461AA953
S31508003BF000F05EF9074600287FF46FAF20461AA941
S31508003C0006F043FF48461DA906F010FE07460028A1
S31508003C107FF463AF20461DA906F037FF20460EA99C
S31508003C2006F033FF20460BA906F02FFF204611A900
S31508003C3006F02BFF95F84130012B03D1204617A932
S31508003C4006F023FF204614A90BF0A2FA95F8413096
S31508003C501BB9204617A90BF09BFA20460BF0E0F992
S31508003C60074600283FF45BAF95F8411019B952464C
S31508003C7040460BF0CCF90023319A13702DE7212723
S31508003C802BE700BF200000201000002000000304DE
S31508003C90000002042DE9FF474FF000080E461746BC
S31508003CA00446CDF80080002859D022B900252846B8
S31508003CB004B0BDE8F087002951D032F0030902F0BC
S31508003CC0030A1FD04FF0E063C0E9003801230191D1
S31508003CD0C0F808800293C0F8208049F0005301A973
S31508003CE003930BF055FA494620460BF02BFA20466B
S31508003CF00BF096F9054628B14A46414630460BF080
S31508003D0086F9D4E7BAF1000FD0D04FF000084FF08B
S31508003D10E063C4E900380123CDF804D00293114BBF
S31508003D20204601A9C4F80880C4F8208003930BF044
S31508003D302FFA042120460BF005FA20460BF070F9FD
S31508003D40054608B13A46D8E7009A4E44EB000135D5
S31508003D5022FA03F3AA4506F8013BF7D1A6E721257F
S31508003D60A5E700BF04000020F0B50F4616461D461D
S31508003D70044693B010B9212013B0F0BD0029FAD03B
S31508003D80002AF8D0002BF6D0002331461A463846CA
S31508003D9006F00AFC0028EFD1304602A906F0A0FB7F
S31508003DA00028E9D1EB68022B0AD039683F48029A05
S31508003DB081426B6902D01830814270D19A42DAD8B2
S31508003DC02B68002BD7D14FF060623846C4E9002330
S31508003DD0A360236201A906F042FC0028CCD1019910
S31508003DE0204621F4F06101910BF0ACF969462846AA
S31508003DF006F035FC0028BFD1204600990BF0A2F941
S31508003E00384609A900F054F80028B5D1204609A972
S31508003E1006F03BFE38460CA906F008FD0028ABD193
S31508003E2020460CA906F031FEEB684BB1284606A9D8
S31508003E3000F03EF800289FD1204606A906F025FE88
S31508003E40304603A906F0F2FC002895D1B368DA04D7
S31508003E500CD59B0427D50621F36932691B6801FB3B
S31508003E6003225B0043F0005303920593204603A9FF
S31508003E7006F00BFE28460FA906F0D8FC00287FF4AA
S31508003E807BAF20460FA90BF083F9032520460BF0DC
S31508003E90C7F801287FF470AF013DF7D16CE7B3EBA3
S31508003EA0420F8DD267E7292066E700BF200000B0E1
S31508003EB090B189B101234B60C368013B012B08D837
S31508003EC08269064B1AB10A6000208B607047044A63
S31508003ED0F9E74FF00053F7E7212070470800002064
S31508003EE060F2000870B50E46154604468AB00028EA
S31508003EF05BD0002959D0002A57D0012329461A46F3
S31508003F00304606F051FB00284DD1B36813F4C04F74
S31508003F104BD0AB6803F4C043B3F5005F45D1254BDE
S31508003F20A060C4E90030206207A9304606F097FB76
S31508003F30002838D1204607990BF004F9304601A924
S31508003F40FFF7B6FF78BB204606F09FFD304604A96A
S31508003F5006F06CFC38BB204604A906F096FDEB6813
S31508003F601BBBAB6803F4C043B3F5005F1DD16946BC
S31508003F70284606F0E0FAB0B9009B6A699A4216D359
S31508003F802A6943F0005307920122204607A908929E
S31508003F90032509930BF0FCF820460BF041F801289D
S31508003FA001D1013DF8D10AB070BD2120FBE71D20E3
S31508003FB0F9E700BF0000010200F01F02A0F5062085
S31508003FC0A0F55060812810D801230949400993407B
S31508003FD051F820201A4341F82020064951F820209C
S31508003FE022EA030241F8202070474FF0FF3070475D
S31508003FF0581200204412002030B593B0142205460A
S315080040000C460CA800210BF002F801232E480AAA38
S3150800401006A911900D9301F059F9002844D1DDE95C
S315080040200A01069B0CAA0D9313F0FF0308BF119310
S3150800403008AB01930423009307AB01F0E9F80028C5
S3150800404032D10D9B089A1B0A012B2FD01F498B4290
S3150800405018D07BB909AB04931023CDE902430C238E
S3150800406007A9CDE900530CA8194B07F031FB10F14D
S31508004070860F14D11022002120460AF0C8FF6FF0DF
S31508004080920011E009AB04931023CDE902430C23F7
S3150800409007A9CDE900530CA80D4B07F019FB00281A
S315080040A0E8D1099B102BE5D113B030BD09AB0493B9
S315080040B01023CDE902430C2307A9CDE900530CA828
S315080040C0034B07F0D0F9EAE70600FF7F02008000FD
S315080040D00002C0032DE9F04F97B00E4699460546F3
S315080040E0DDF88080002800F0A880002900F0A5806F
S315080040F008F11C03934200F2A0801422002111A8A3
S315080041000AF085FF4FF400730CAC20460C9306F0BA
S31508004110CEFC0C9B4A4F12934A4B13934A4B10936F
S315080041203B78FBB1D7E90202D5E902139A4208BFE8
S31508004130884217D1103797E80F0084E80F0000234C
S315080041400B93119B06F10C0A1B0A012B08F1100BA5
S3150800415060D03E4A93424AD0BBB16FF0920017B086
S31508004160BDE8F08F21463046FFF746FF0028F6D116
S3150800417094E80F00D5E902ABDFF8D4C0C7E902AB73
S315080041808CE80F0001233B70D9E710220C230BAFF4
S31508004190CDE90252CDE900632146CDE90787CDE98D
S315080041A005B9284BCDF810A010A807F0E9F910F1C9
S315080041B0860F4FF010020ED10C232146CDE900637D
S315080041C0CDE90787CDE905B9CDE9032A1D4B029547
S315080041D010A809F0B4FB10F1950FC0D00028BCD187
S315080041E00B9B4345B9D1219BC3F80080B7E70BABBE
S315080041F01022CDE907830C232146CDE90063CDE9DA
S3150800420005B9CDE902520F4BCDF810A010A807F05A
S31508004210B7F9E0E70BAB1022CDE907830C2321465B
S31508004220CDE90063CDE905B9CDE90252054BCDF8D4
S3150800423010A010A807F06EF8CDE76FF086008EE79D
S31508004240100C0020000250050024800002008000A7
S31508004250200C002000F01F03A0F50620A0F55060F2
S31508004260812810B519D801210D4A4009994052F8FC
S3150800427020300B430B4942F82030D1E90043234450
S315080042808C682344CC68096923445B1804D1C2E9C5
S315080042900033C2E90233136110BD4FF0FF30FBE76C
S315080042A044120020581200202DE9F04FA9B0CDE99C
S315080042B0022182461F4604460822414021FA02F39B
S315080042C04B40980702F1080218BF9B00202A1C449D
S315080042D0F4D18123B4FBF3F303EBC313E41AA74B1E
S315080042E004F506241D7804F55064002D3BD1DFF84B
S315080042F09882D8F8003093F83430002B72D02946CB
S31508004300402208A80AF083FE2946402218A80AF087
S315080043107EFE9B4D9B4EA9461035AE4228BF2E46C3
S31508004320013E00964B461022D8F8000008A905F071
S315080043309BFD4FF0000B034608AA5B4541D1924806
S3150800434000964B461022006818A905F096FD4FF016
S315080043500009834618AECB454AD18C4B9D42D9D12C
S315080043600122864B1A704FF081090026DFF830B219
S31508004370A4F50625A5F550635B095BF8232004F030
S315080043801F01CA40D2074BD4814A52F82330CB408A
S31508004390DB0736D58123002E08BF2646A5F6FF443F
S315080043A0B4FBF3F303EBC313E41A04F50624B9F1DB
S315080043B0010904F55064DBD1029B23B31EB33446CE
S315080043C02AE052F8040B05930492FFF7F5FDDDE9A0
S315080043D00423013009D10022684B1A70674B1B78F9
S315080043E0002BC0D16FF091050FE00BF1010BA4E78C
S315080043F056F8040BFFF72EFF0130EFD009F101093B
S31508004400A9E7029B2BB96FF08B05284629B0BDE8B2
S31508004410F08F002E18BF3446349B00251C60F4E745
S31508004420329B13B10023329A1360339B13B10023D6
S31508004430339A13601023DFF8508100933A4600231D
S315080044402146D8F80000FEF703F8002837D132993C
S315080044503A68504BE1B110209A4208601BD02146B9
S31508004460D8F80000FEF7B8FA0028CCD1D7E902231D
S3150800447003998B4208BF52452AD08123A5F6FF45EA
S31508004480B5FBF3F303EBC313ED1A05F506248EE724
S315080044909A42EBD0E3E7339B002BE7D02146D8F8C6
S315080044A0000018AAFEF74EF848B9339B329A1B68E3
S315080044B01268934296D39B1A339A1360D6E7364B03
S315080044C09842CCD06328CAD0344B9842CED089E7DC
S315080044D0029B23B17B68012B70D0082B6ED000237A
S315080044E021460893D8F8000008AB07AAFEF72AF871
S315080044F0054600287FF476AF0120089907F0ACFD41
S31508004500074610B96FF08C057FE72946089A0AF026
S315080045107EFD3A462146089BD8F80000FDF758FF6D
S31508004520064600283ED1089A18AB0193A2F12C033F
S315080045300093384607F11C03103A07F11001FFF7FC
S31508004540C9FD054698BB089B189A2C3B934230D167
S31508004550D7E9026800213846089A0AF058FD384615
S3150800456007F05CFD002D7FF450AF039B434508BF61
S31508004570B2453FF451AF6FF0940546E7B4130020F7
S31508004580006D0800816D080080150020906D0800F8
S3150800459044120020105D175EFFDF00F0FEDF00F01A
S315080045A0581200202E46A8466FF09105D2E7B0466D
S315080045B0D0E7064680466FF09405CBE76FF0840592
S315080045C023E700BF2DE9F04F0F4614461E468246E4
S315080045D097B0002800F0B28011B9002A40F0AE80EA
S315080045E0002E00F0AB80209A04F11C03934200F2DF
S315080045F0A580219B002B00F0A180002031460C22CB
S315080046000AAB0A9006F0A3FA014600283BD10A9B9A
S315080046100C2B38D1142211A80AF0F9FC4FF4807338
S315080046200CAD28460C9306F042FA0C9B29461293C9
S31508004630444B30461393444B1093FFF7DDFC20BBE5
S3150800464095E80F00DAE90289DFF804E10EF1100CAB
S315080046508CE80F000123CEE902898EF8003006F1B6
S315080046600C0824B12246394640460AF099FC002334
S315080046700B93119B04F110091B0A012B4BD0334AEB
S31508004680934235D023B16FF0920017B0BDE8F08F92
S3150800469010224FF00C0B0BAFCDE902A22946CDE94B
S315080046A00797CDE90548CDE9006B264BCDF8108074
S315080046B010A806F063FF10F1860F4FF010020DD117
S315080046C02946CDE90797CDE90548CDE90328CDE97F
S315080046D001BA1C4B009610A809F021F90028D2D17E
S315080046E00B9B9945CFD1219A09F10C031360CCE7AE
S315080046F00BAB1022CDE907930C232946CDE90063BD
S31508004700CDE90548CDE902A20E4BCDF8108010A8D8
S3150800471006F034FFE2E70BAB1022CDE907930C2332
S315080047202946CDE90063CDE90548CDE902A2054B46
S31508004730CDF8108010A806F0EBFDCFE76FF08600E5
S31508004740A3E700BF00025005002480000200800095
S31508004750100C00202DE9F04F824689461F46164662
S3150800476087B052B12BB96FF08604204607B0BDE872
S31508004770F08F40F26C739A4267D8109B012B0DD8C4
S31508004780002406F12C0841460120CDE9044407F02F
S3150800479063FC054660B96FF08C04E6E7109B082BAE
S315080047A056D13146384606F08FF90028E8D1DAE7BF
S315080047B0214642460AF02BFC04ABCDE9014300949E
S315080047C02B46012250464946FFF76EFD044668B15E
S315080047D010F18C0F08BF6FF08D0442460021284661
S315080047E00AF015FC284607F019FCBEE71A4B06F135
S315080047F01C0B2B60109BC5E902A96B6005ABCDE9C4
S3150800480000B332463946284605F11003FFF7DAFEAB
S3150800481004460028E1D1059B5B4510D1049E0F484C
S3150800482043462A4631460068FDF75AFF50B93046D6
S31508004830FFF7C2FB013008BF6FF08604CDE76FF0C3
S315080048409204CAE76FF09104C7E76FF091048CE70A
S315080048506FF0850489E700BF105D175E801500209C
S315080048602DE9F04F8DB08146DDE9167A8846164661
S315080048701D469BB1BAF1000F05D16FF0860420469C
S315080048800DB0BDE8F08F002FF7D0B7F1005FF4D375
S31508004890C3F1005303F580339F42EED8102200215E
S315080048A008A80AF0B4FB002207AB029305AB0193F4
S315080048B006AB00934846414608ABCDE90522FFF70B
S315080048C0F3FC04460028DAD1099B082B06D0059983
S315080048D0A1F11C034DB9B3420ED2CEE7294638469C
S315080048E006F0F2F80028F2D1C7E7B34245D8002B04
S315080048F0C3D1002EC1D13546CAF80050012007F0B1
S31508004900ABFB0546002846D00021059A0AF07FFB36
S31508004910059B224800932A46069B07990068FDF7DF
S3150800492097FD78BB059A04AB019305F10C0BA2F130
S315080049301C03009329465B4608A8FFF7CBFB0446F1
S3150800494090B9059A049B1C3A9A421ED1DDE90A23BE
S31508004950434508BF4A451BD1DAF8002022B138463C
S315080049600BEB06010AF01CFB00212846059A0AF003
S315080049704EFB284607F052FB81E79B1B9D4228BF4A
S315080049801D46B9E76FF09104EEE76FF09404EBE784
S315080049906FF08604E8E76FF08C0470E78015002056
S315080049A030B58DB00C4605461022002108A80AF03D
S315080049B02EFB002207AB029305AB019306AB2146FB
S315080049C00093284608ABCDE90522FFF76DFC04469F
S315080049D018BB099B012B23D0082B21D0079D134B0D
S315080049E029461868FDF7F8FFE8B9A5F50623A3F5E3
S315080049F05063812B05F01F020DD801210C485B0975
S31508004A00914050F823204A4040F823202846FFF7D3
S31508004A1021FC013001D16FF0860420460DB030BD6F
S31508004A206FF08404F9E76FF09104F6E7801500202B
S31508004A30581200202DE9F04196B004AC00F130057B
S31508004A400646884617460FCD0FC495E80F0084E83A
S31508004A500F00282200210CA80AF0D9FA0CA80AF09F
S31508004A6067FB034606F1300023B16FF0920016B0DB
S31508004A70BDE8F08133680D4A23F47E13934211D1C1
S31508004A800B9BCDE90287019307AB0093321D9DF876
S31508004A9010300CA9FEF78CFD0028E6D1736A3B445A
S31508004AA07362E4E76FF08500E1E700BF00024005A6
S31508004AB0038830B503F4E044B4F5005F21F47E14AE
S31508004AC013D1C3F30225042D0FD181F0AA6585F40D
S31508004AD0807535F47E1515D081F0AA6585F40075C4
S31508004AE035F47E150ED000210EE042F20405AB42E5
S31508004AF0F9D1134B9C4208BF6FF0860018BF6FF0C0
S31508004B00850030BDC1F305410D4DAC4212D1B3F558
S31508004B10105F12D1438823F04000802802D0B3F5F5
S31508004B20807F0AD104390C2907D832B10C2A08BF6C
S31508004B300020E3E76FF08500E3E76FF08600E0E723
S31508004B40000240052DE9F04F9DB08146DDE92A7641
S31508004B501D468B46DDF8B080DDF8C4A0099241B148
S31508004B6038B1269B2BB1289B0BB9299B0BB91FB9CA
S31508004B704EB16FF0860484E02EB1B8F1000FF8D07C
S31508004B802D9B002BF5D02E9B002BF2D0BAF1000FEF
S31508004B90EFD0309B002BECD02F9B002BE9D0B9F837
S31508004BA0003003F4E042B2F5005F6ED1C3F302228F
S31508004BB0042A6AD185F0AA6383F4807333F47E13DA
S31508004BC006D085F0AA6383F4007333F47E1365D1A7
S31508004BD0C5F3054329464846279ACAF80030FFF721
S31508004BE067FF044600284CD10146282212A80AF07D
S31508004BF00EFA202221460AA80AF009FA12A80AF093
S31508004C0097FA00285DD159464846099A0AAB00F03A
S31508004C1003FE0446002834D12D9B9E4254D8DAF868
S31508004C200030309A93424FD8474508D2BB19984569
S31508004C3005D23946324640460AF0CFF94746244B54
S31508004C4025F47E159D422BD1279B0C2B30D12F9B0B
S31508004C5000220793DAF800300AA9CDE90583299BD3
S31508004C6004970393289B12A80293279B0193269BDC
S31508004C7000933346FEF7A2FA21281CD0F0B92E9BE2
S31508004C801E6020461DB0BDE8F08F42F20402934232
S31508004C9004D185F0052383F4801396E7002399E76A
S31508004CA06FF0880400232E9A1360CAF80030E8E7EC
S31508004CB06FF08504F6E76FF08604F3E76FF0920469
S31508004CC0F0E76FF09204DCE76FF08904D9E700BFDC
S31508004CD0000240052DE9F04F9BB08A46DDE92865BC
S31508004CE09346984681462C9F28B96FF0860420463D
S31508004CF01BB0BDE8F08F0029F7D0249B002BF4D019
S31508004D00269B13B9279B002BEFD10EB9002DECD1AA
S31508004D1017B92D9B002BE8D12E9B002BE5D02A9B9B
S31508004D20002BE2D041464846259AFFF7C1FE0446C5
S31508004D300028DCD10146282210A80AF068F92022AA
S31508004D4021460DEB02000AF062F910A80AF0F0F904
S31508004D5010B16FF09204CAE75A465146484608AB66
S31508004D6000F05AFD04460028C1D12D9B9D422DD83E
S31508004D70BE4208D273199F4205D231462A463846A2
S31508004D800AF02BF93E46174B28F47E18984520D191
S31508004D90259B0C2B20D12A9B2A4606932B9B0396F0
S31508004DA0CDE90473279B08A90293269B10A80193B3
S31508004DB0259B0093249BFEF741FB212895D02C28A0
S31508004DC00DD00028C5D12E9B1D6090E76FF0890491
S31508004DD08DE76FF088048AE76FF0850487E76FF040
S31508004DE0940484E7000240052DE9F3470A9E0C4621
S31508004DF091469A460546DDF83080002849D00029B4
S31508004E0047D0002A45D04B880733BAEBD30F40D397
S31508004E100B88B3F5105F05D06FF08504204602B005
S31508004E20BDE8F08786F0AA6383F4807333F47E13B3
S31508004E3006D086F0AA6383F4007333F47E1303D195
S31508004E40C6F30543102B24D88022002128460AF0F1
S31508004E50DEF81B4B26F47E129A42DDD12F4647F820
S31508004E60046B20463B465246494600F0D5FC0446AC
S31508004E700028D3D1019001A9384605F031FBD8B9ED
S31508004E80019AA2F11001102903D80E4BCB40DB077B
S31508004E9002D46FF08604C1E70E9B1A440D9B9A4212
S31508004EA0F7D8404669690AF07BF89DF82C30C5F8B2
S31508004EB0148085F83030B1E76FF09204AEE700BF92
S31508004EC0000240050101010038B515460446D0B177
S31508004ED0C9B1C36CA3B903680C4A23F47E13934281
S31508004EE004D10C2D04D06FF0850008E0102D0AD8E7
S31508004EF02A4604F13C000AF053F80020E56438BD60
S31508004F006FF08800FBE76FF08600F8E700024005BF
S31508004F1030B50446F8B10368104D23F47E10A84254
S31508004F2006D005F58075A84204D06FF0880011E018
S31508004F30D80310D41B0C13F03C0F0CD003F03F031E
S31508004F40102B08D8636A002BEFD1A06A0028ECD191
S31508004F50C4E90D1230BD6FF08600FBE7000140057D
S31508004F602DE9F0418EB0044616460021282204A8F1
S31508004F701D46DDF85080169F0AF049F804A80AF085
S31508004F80D7F820B16FF092000EB0BDE8F0818CB171
S31508004F9023681D4A23F47E1393422FD194F8703068
S31508004FA0159A2B4493422CD816B1B8F1000F04D1A8
S31508004FB005B9B7B96FF08600E6E7002FFAD085B1D4
S31508004FC0636A83B12B46CDE901870096221D04A9A1
S31508004FD004F13000FEF78EFB0028D3D1A36A2B44D8
S31508004FE0A3620020D0E7A36A002BEBD1002220465B
S31508004FF01146FFF71FFD0028E4D0C5E76FF08500CE
S31508005000C2E76FF08900BFE7000240052DE9F04FBF
S3150800501005468FB09146DDE918AB2822002104A881
S315080050201E461B9F09F0F3FF002D5FD02B681A9AC6
S31508005030C3F30548904556D8FF2E57D8BAF1000F46
S3150800504054D0BBF1000F51D0002F4FD00022CAF820
S315080050500020002B4DD06B6A63B12B68264A23F4D7
S315080050607E13934214D004A80AF062F8A0B96FF030
S31508005070850419E0AA6A002AEFD111462846FFF7E7
S31508005080D9FC04460028E8D020460FB0BDE8F08FCA
S3150800509004A80AF04DF810B16FF09204F4E795F8F9
S315080050A071403CB16FF0860404A805F014FA002894
S315080050B0EAD0F1E7F6B25B46CDE90196CDF80CA049
S315080050C0CDF800802A1D04A905F13000FEF7B4FCCE
S315080050D018B90446C7F80080E6E721283C60E1D005
S315080050E06FF09204E0E76FF08904CDE76FF086046D
S315080050F0CAE76FF08804C7E7000240052DE9F04FBC
S3150800510005468FB09046DDE9189A2822002104A8A2
S315080051101E461A9F09F07BFF2DB96FF086042046BC
S315080051200FB0BDE8F08FB9F1000FF6D00022C9F82C
S315080051300020BAF1000F5DD0002F5BD0FF2EECD80F
S3150800514029682F4821F47E13834212D000F5807017
S31508005150834211D0B3F1052F11D000294DD09346C3
S315080051606B6A7BB104A809F0E3FFB0B16FF0920453
S31508005170D5E7DFF894B0F3E7DFF888B0F0E7DFF8B3
S315080051808CB0EDE7AA6A002AECD111462846FFF74B
S3150800519051FC04460028E5D0C1E71A4B9B4523D1AC
S315080051A095F87130012B07D06FF0860404A805F036
S315080051B092F90028B3D0D9E7F6B2FFB25346CDE943
S315080051C00186CDF80C9000972A1D04A905F1300038
S315080051D0FEF732FC04460028E8D02C2807D0212800
S315080051E0E2D06FF09204E1E76FF08504DEE76FF036
S315080051F09404DBE76FF0940491E76FF088048EE778
S315080052000001400500025005000150050005100583
S3150800521037B504461D4600230193B4F1F70361F13F
S315080052200001092B71F1000110463AD2082B38D833
S31508005230DFE803F02F2537273725370520004FF4F9
S3150800524040511B4B036005F049FD1A4BC36040F201
S31508005250FF134360069B032B26D901230422002053
S315080052608DF804308DF80540019B2B60079B1A606A
S3150800527003B030BD0E4B4FF400510360E3E70E4B0D
S31508005280F9E70E4B4FF44071036005F027FD0C4B10
S31508005290DCE70C4B4FF44071036005F01FFD0A4B29
S315080052A0D4E76FF08B00E3E76FF08900E0E700BF13
S315080052B012710001FF060006124100010024800059
S315080052C00010C004002400010002C003104B10B5F2
S315080052D003440C46052B17D8DFE803F00C0E100321
S315080052E01412FF20002140F2FF13C2E9000100203A
S315080052F0236010BDFC20F5E7F820F3E7FA20F1E774
S31508005300F720EFE7FE20EDE76FF08B00F1E700BF2F
S31508005310FFFF00802DE9F04FC5B00E46DDE94E745B
S3150800532000210546914601A820229A46DDF840B19B
S3150800533009F06DFE2022002109A809F068FE202246
S31508005340002111A809F063FE2822002119A809F0F6
S315080053505EFE0021802224A8239109F058FE46B15A
S31508005360B9F1000F05D027B1BBF1000F01D0529B50
S315080053702BB96FF08606304645B0BDE8F08FB6F813
S315080053800080738808F4E042B2F5804FF1D0424AB3
S3150800539042492A4042F010628A4210D1DA1DBAEB1D
S315080053A0D20F4FEAD205E4D3519A954263D847F211
S315080053B01212904506D047F24112904513D06FF06D
S315080053C08506D8E7B3F5C07F5BD006D8C02B61D079
S315080053D0B3F5807FF3D1324A54E040F20922934272
S315080053E0EDD1304A4EE0A542C3D8FF2B2FD0B3F5F6
S315080053F0E07FE4D12C4A59462846519B03340333AF
S3150800540024F0030423F00303CDE91513099212903F
S3150800541052463046494601ABCDE90D7400F0FCF919
S3150800542006460028A7D10B9B119043F4005319A8F0
S315080054300B9309F07DFE08BB11AB09AA01A919A8AF
S31508005440FEF792FC044620B1482892D1B7E7174ADE
S31508005450D1E747F2121398450AD123AF2A463946AF
S31508005460584609F09DFD23463B550134842CFBD153
S31508005470529B1D607FE76FF089067CE76FF0920606
S3150800548079E70B4A02348423013724F003046800C1
S3150800549023A9B9E7074AF5E70000FFF60000020965
S315080054A02000008042000080380000B0200000B0D4
S315080054B030000080180000802DE9F0410D461446A2
S315080054C01E46C4B010B96FF086005CE00029FAD019
S315080054D0002AF8D0002BF6D0038803F44F42B2F521
S315080054E0824F23D1DAB2122A0CD0413A012A1DD8AA
S315080054F03368002B00F0C9800733B4EBD30F00F0F4
S31508005500C680E0E723F0FF03B3F5E24F44D14288B3
