S02400006275696C642F64656275672F7468657369735F70726F6A6563745F6E732E73333735
S3150802C00000400020B1C30208DF060308DF06030862
S3150802C0101D0B0308DF060308DF060308DF0603080D
S3150802C020DF060308DF060308DF060308DF06030840
S3150802C030DF060308DF060308DF060308DF06030830
S3150802C040DF060308DF060308DF060308DF06030820
S3150802C050DF060308DF060308DF060308DF06030810
S3150802C060DF060308DF060308DF06030819060308C6
S3150802C07009060308DF060308DF060308DF060308C6
S3150802C080DF060308DF060308DF060308DF060308E0
S3150802C090DF060308DF060308FDCA0208DF060308EF
S3150802C0A0DF060308DF060308D5C60208ADC602087E
S3150802C0B0DF060308DF060308DF060308DF060308B0
S3150802C0C0DF060308DF060308DF060308DF060308A0
S3150802C0D0DF060308DF060308DF060308DF06030890
S3150802C0E0DF060308DF060308DF060308DF06030880
S3150802C0F0DF060308DF060308DF060308DF06030870
S3150802C100DF060308DF060308DF060308DF0603085F
S3150802C110DF060308DF060308DF060308DF0603084F
S3150802C120DF060308DF060308DF060308DF0603083F
S3150802C130DF060308DF060308DF060308DF0603082F
S3150802C140DF060308DF060308DF060308DF0603081F
S3150802C150DF060308DF060308DF060308DF0603080F
S3150802C160DF060308DF060308DF060308DF060308FF
S3150802C1700348044B834202D0034B03B11847704766
S3150802C180A8440020A844002000000000064B0749E6
S3150802C190C91A891048BF0131491003D0044B0BB1A3
S3150802C1A001481847704700BFA8440020A844002049
S3150802C1B00000000010B5064C237843B9FFF7D8FFF4
S3150802C1C0044B13B10448AFF300800123237010BD5A
S3150802C1D02C440020000000001816030808B5054B79
S3150802C1E01BB105490548AFF30080BDE80840FFF7D3
S3150802C1F0CDBF00BF0000000000400020181603084B
S3150802C200A3F5803A704700BF174B002B08BF134BA4
S3150802C2109D46FFF7F5FF00218B460F461348144A41
S3150802C220121A04F005FD0E4B002B00D098470D4B51
S3150802C230002B00D098470020002104000D000D486D
S3150802C240002802D00C48AFF3008004F0FFF9200062
S3150802C250290004F0DAFC04F0E7F900BF0000080040
S3150802C26000000000000000000040002000400020FE
S3150802C27040440020000000000000000008B5034802
S3150802C28004F053FE04F08FFC08BD00BF40140308F7
S3150802C29008B5024804F049FE08BD00BF4014030869
S3150802C2A02DE9F04180460E46082904D106F1090512
S3150802C2B000273C460AE040F26311214804F00BFAD3
S3150802C2C0F4E75B21082000F039F90134AC4233D295
S3150802C2D0052C1BD801A353F824F000BFC3C20208D9
S3150802C2E0F5C2020829C30208FDC2020801C30208F0
S3150802C2F005C30208F3B20433D9B2E3E78021E1E7C2
S3150802C3000021DFE77B1C3946DFB2DBE7B31DA34218
S3150802C3100CD0F31DA3420BD006F10803A34209D0A1
S3150802C320A31F18F80310CDE7D121CBE75A21C9E795
S3150802C3305A21C7E75D21C5E70020BDE8F08100BFA5
S3150802C340D810030838B504460D4601B128B9452167
S3150802C350054804F0C0F900E01C462368002BFBD10F
S3150802C3602B60256038BD00BF2411030810B50446AA
S3150802C37030B1206818B1036823600023036010BD3A
S3150802C3805621024804F0A7F9F3E700BF241103086F
S3150802C39008B50448044A121A9210044904F0A0F98E
S3150802C3A008BD00BF80C1020880C1020840440020BF
S3150802C3B008B5154B83F30A8800F030F8FFF7E8FF53
S3150802C3C0124A0AE01068516850F8230041F823001F
S3150802C3D0013391688B42F5D30C320D4B9A4201D246
S3150802C3E00023F6E70B4A08E01168002041F823000B
S3150802C3F0013351688B42F7D30832074B9A4201D26E
S3150802C4000023F6E7FFF700FF003000202016030896
S3150802C4102C1603082C1603082C160308044B054A87
S3150802C4209A60D3F8882042F47002C3F888207047CD
S3150802C43000ED00E000C00208014B1860704700BF1B
S3150802C4404444002008B5064B1860064B1B6F03F0E0
S3150802C4500703032B00D008BD04F018FCFBE700BF56
S3150802C4604C4400200080005010B582B0002401948C
S3150802C4702A4804F05AFD8DF8004003238DF801304E
S3150802C48001220421684600F0C9F8254B0122C3F8A7
S3150802C490442401A9052004F041FD00283BD1214B83
S3150802C4A0D3F8F02042F00102C3F8F020D3F8FC20BA
S3150802C4B042F08072C3F8FC20A3F55D431A4A1A605B
S3150802C4C0019B03F5D52303F2FC43DB08174AA2FBBB
S3150802C4D003239B0A013B164A13610223C2F8F03072
S3150802C4E04FF48073C2F804334FF06043114AC3F81D
S3150802C4F0B02F114AC3F8802ED3F8002E42F4807268
S3150802C500C3F8002EFF2283F82020D3F8002E22F447
S3150802C5108072C3F8002E02B010BD00BF4014030893
S3150802C52000D0035000ED00E0FF03004017916502BA
S3150802C530000004E055CEACC5090001004FF0604387
S3150802C540D3F8803E13F0010F01D1112070470E4A2D
S3150802C550D2F8FC3043F08073C2F8FC304FF06043E7
S3150802C560D3F8002E4FF0010C0CFA00FC42EA0C023A
S3150802C570C3F8002E53F82030002BE8D04FF0604362
S3150802C58003F820100020704700ED00E010B50446BD
S3150802C5900FE00123834024EA03040F2814D800EB92
S3150802C5A040020E4B03EB82035A6812B19968C0B275
S3150802C5B0904794B1234600201F28EAD813F0010FAA
S3150802C5C0E7D101305B08F7E7103800EB40039B0020
S3150802C5D0B033024A13440433E6E710BD184000207C
S3150802C5E008B50D4804F0A1FC1A2002F02FFF28B95D
S3150802C5F01B2002F02BFF40B9002008BD1A2002F0CA
S3150802C6003FFF1A2002F012FFF2E71B2002F038FF62
S3150802C6101B2002F00BFFEFE7401403082DE9F04157
S3150802C62070B10C46154606460F292FD803787BB1FA
S3150802C630022B26D0032B27D0012B07D0002309E093
S3150802C6409321184804F047F8222717E00F2301E040
S3150802C65040F2FF737278D34013F0010F16D0124BD3
S3150802C660D3F81073C7B904F04DFC80462A46214612
S3150802C670304602F043FC404604F03FFC3846BDE82B
S3150802C680F08140F2FF33E5E73F23E3E797210548C8
S3150802C69004F021F82127F1E79B21024804F01BF850
S3150802C6A00227EBE75C11030800C0035008B5084BE4
S3150802C6B0D3F82404D3F82024104000F0553020F093
S3150802C6C0502003F50053C3F82004FFF75FFF08BDA7
S3150802C6D000C0035008B5084BD3F82404D3F8202425
S3150802C6E0104000F0AA3020F0A02003F50053C3F84A
S3150802C6F02004FFF74BFF08BD00C00350F0B585B014
S3150802C7000C4694469DF83410664A1278002A00F0C0
S3150802C710BD800546BCF1070F00F2BA800A9A002AC4
S3150802C72000F0B8800B9A002A00F0B6800E9AB2F58D
S3150802C730006F00F3B38001285BD05B4A02EB0C1250
S3150802C740127B002A00F0AC8000220092019202922B
S3150802C7500392564A02EB4C1E002C4FD14FEA4C1656
S3150802C76000209051CEF80400CEF80800CEF80C004E
S3150802C7709EF8020040F010008EF802009EF80300B0
S3150802C78040F030008EF8030021B9C1B241F003012E
S3150802C7908EF8031000930E9B013B444A4FEA4C1055
S3150802C7A002EB4C11165A63F30E1616520A9B8B604D
S3150802C7B00B9B4B60CB789DF83C2062F38303CB70CE
S3150802C7C0012D36D0109B002B56D0374A4FEA0C1152
S3150802C7D002EB0C1310985050119A5A6000249C6070
S3150802C7E05D7372466946604602F06CFA204605B0E9
S3150802C7F0F0BD0C9A002AA0D12D48F8E72B4F4FEA34
S3150802C8004C1607EB4C120020B85150609060D0606D
S3150802C810907840F010009070D07840F00300D07005
S3150802C8200029B7D107EB4C12C1B241F03001D170E1
S3150802C830B0E70E460A7B42F001020A73D2B242F010
S3150802C84002020A73CA68042161F39F02F26006F1C2
S3150802C850100796E80F0087E80F00F2696FF00301E8
S3150802C86061F39F02F2610C9B7361012CAAD10B9AA8
S3150802C870B2610C9A7260A5E7002DA6D10B4B03EBA9
S3150802C8804C139A786FF304129A709EE70948AEE73A
S3150802C8900748ACE70648AAE70548A8E70448A6E712
S3150802C8A00548A4E72D44002080420020804100204C
S3150802C8B0018000F0028000F0078000F0134B1B781D
S3150802C8C0FBB110B50446F0B104F01CFB0023072B9C
S3150802C8D013D80F4A02EB0312127B0AB10133F6E7A9
S3150802C8E023600B4A190102EB031301241C7300246B
S3150802C8F0545004F002FB204602E004F0FEFA054812
S3150802C90010BD054870470548FAE700BF2D440020C8
S3150802C91080420020048000F0028000F0018000F0CE
S3150802C92038B504F0EFFA04460023072B06DC0C4A56
S3150802C93002EB0312127B12B90133F6E7002222B187
S3150802C940204604F0DAFA074838BD02F045F9002510
S3150802C950054B1D70204604F0D0FA2846F4E700BFBE
S3150802C96080420020058000F02D4400200F4B1B78E2
S3150802C970BBB110B50446072815D804F0C3FA0C4B08
S3150802C98003EB04131B7B1BB904F0B7FA09480BE047
S3150802C990074B03EB041300241C7304F0AEFA20467B
S3150802C9A002E005487047054810BD00BF2D44002027
S3150802C9B080420020068000F0028000F0018000F02C
S3150802C9C000B583B0134B1B68019300238DF804301E
S3150802C9D004F098FA104B1B7833B90F4B01221A70E0
S3150802C9E004F08BFA002309E004F087FA0B480EE0FC
S3150802C9F00B4A02EB0312002111730133072BF7DDF1
S3150802CA0008238DF8073001A802F012F9002003B0B6
S3150802CA105DF804FB981103082D440020038000F0FA
S3150802CA208042002010B5104C2478BCB1072817DCC8
S3150802CA300E4C04EB0014247BA4B10C4C4FEA001EE6
S3150802CA4004EB001C44F80E30029BCCF80430002498
S3150802CA50CCF8084002F036F9204610BD0448FCE737
S3150802CA600448FAE70448F8E72D44002080420020EB
S3150802CA70028000F0018000F0078000F008B50A4B3A
S3150802CA801B785BB107280BD8084B03EB00131B7BFB
S3150802CA9043B1002102F0B6F8002008BD0448FCE7BD
S3150802CAA00448FAE70448F8E72D44002080420020AB
S3150802CAB0028000F0018000F0078000F008B50A4BFA
S3150802CAC01B785BB107280BD8084B03EB00131B7BBB
S3150802CAD043B1012102F096F8002008BD0448FCE79C
S3150802CAE00448FAE70448F8E72D440020804200206B
S3150802CAF0028000F0018000F0078000F0F8B5194BBB
S3150802CB001F6D5B6D1F4002D40125002402E0FEE77B
S3150802CB1001346D00072C24D83D42F9D0124B1D650D
S3150802CB202301124AD358002BF2D002EB0416B1683D
S3150802CB300131B16072682046984780F00100C0B2A0
S3150802CB40737B012BE4D10028E2D0094B03EB441393
S3150802CB501A7B6FF341021A731A7F6FF341021A772F
S3150802CB60D6E7F8BD00000450002004508042002099
S3150802CB7080410020024B4FF480321A67704700BF8B
S3150802CB800090005070B504460D4616461F2906D871
S3150802CB9056B104F580540123AB40236070BD912140
S3150802CBA0034803F098FDF3E704F50054F3E700BFE2
S3150802CBB09C11030838B505460C46194BD3F82001D3
S3150802CBC000F0070006281DD8DFE800F02404081044
S3150802CBD00C14180004F034F805231CE004F070F86D
S3150802CBE0032318E004F076F8072314E004F064F847
S3150802CBF0022310E004F024F806230CE004F060F89F
S3150802CC00042308E041F29121064803F064FD00235B
S3150802CC10184600E0012305B1286004B1236038BD37
S3150802CC2000800050D011030838B505460C46184B4B
S3150802CC30D3F8283103F00703013B052B20D8DFE898
S3150802CC4003F003131B0F0B1703F0FAFF052305B1B5
S3150802CC50286004B1236038BD03F0F2FF0623F6E725
S3150802CC6004F038F80723F2E704F02AF80323EEE77C
S3150802CC7004F026F80423EAE704F01EF80223E6E79E
S3150802CC8041F29901034803F026FD00231846DEE720
S3150802CC9000800050D011030830B583B005460C4613
S3150802CCA000230193174BD3F8203203F00703042B12
S3150802CCB019D8DFE803F01F03090E1300002101A8A3
S3150802CCC0FFF7B2FF112316E004F004F801900723D8
S3150802CCD011E004F01DF901900A230CE004F044F86F
S3150802CCE00190092307E041F25601074803F0F3FCD5
S3150802CCF0002300E001230DB1019A2A6004B12360E2
S3150802CD0003B030BD00800050D011030870B582B060
S3150802CD1006460D4600230193134BD3F8804104F0CF
S3150802CD200304022C1BD0032C14D0012C06D041F28A
S3150802CD30E6310E4803F0CFFC002404E0002101A8E6
S3150802CD40FFF738FF0F240EB1019B336005B12C6043
S3150802CD5002B070BD03F0BEFF01900724F3E703F0AB
S3150802CD60ABFF0190EFE700BF00800050D011030827
S3150802CD7038B505460C46124BD3F8400100F00300BD
S3150802CD8003280FD8DFE800F01602060A04F0C0F8F6
S3150802CD900A2310E003F0E8FF09230CE004F0BBF8CD
S3150802CDA00B2308E041F2C321064803F094FC002352
S3150802CDB0184600E0012305B1286004B1236038BD96
S3150802CDC000800050D011030838B505460C46154BAD
S3150802CDD0D3F8000200F00700042815D8DFE800F0AF
S3150802CDE01C03070B0F0004F093F80A2315E003F05F
S3150802CDF0BBFF092311E004F08EF80B230DE003F0C4
S3150802CE0045FF800A0E2308E041F2A441064803F0D2
S3150802CE1062FC0023184600E0012305B1286004B12C
S3150802CE20236038BD00800050D011030838B5054686
S3150802CE300C46154BD3F8080200F00700042815D84B
S3150802CE40DFE800F01C03070B0F0004F061F80A2361
S3150802CE5015E003F089FF092311E004F05CF80B23BF
S3150802CE600DE003F013FF800A0E2308E041F2DC41CD
S3150802CE70064803F030FC0023184600E0012305B1FA
S3150802CE80286004B1236038BD00800050D011030821
S3150802CE9038B505460C46124BD3F8400200F003009B
S3150802CEA003280FD8DFE800F01602060A04F030F865
S3150802CEB00A2310E003F058FF09230CE004F02BF8CC
S3150802CEC00B2308E041F26341064803F004FC002301
S3150802CED0184600E0012305B1286004B1236038BD75
S3150802CEE000800050D011030838B505460C46114B90
S3150802CEF0D3F8503203F00303022B17D0032B09D0C1
S3150802CF00012B0FD041F2C9010B4803F0E4FB0023C1
S3150802CF10184602E003F0FFFF0B2305B1286004B1AF
S3150802CF20236038BD03F0F4FF0A23F6E703F01CFF7B
S3150802CF300923F2E700800050D011030830B583B008
S3150802CF4005460C4600230193174BD3F8603203F0CB
S3150802CF500703013B032B1FD8DFE803F0020E19145F
S3150802CF60002101A8FFF726FE0F230DB1019A2A60B8
S3150802CF7004B1236003B030BD002101A8FFF7F8FE13
S3150802CF801023F2E703F0A6FE01900723EDE703F06C
S3150802CF9093FE01900223E8E741F2FD01034803F0FC
S3150802CFA09AFB0023E1E700BF00800050D011030876
S3150802CFB030B583B005460C46002301930E4BD3F8D1
S3150802CFC0703203F00303012B08D0022B0CD041F276
S3150802CFD05B110A4803F07FFB002306E0002101A843
S3150802CFE0FFF7C6FE102300E014230DB1019A2A604A
S3150802CFF004B1236003B030BD00800050D01103088D
S3150802D00038B505460C460E4BD3F8903203F00303A7
S3150802D010012B09D0022B0BD103F05CFE072305B1C5
S3150802D020286004B1236038BD03F046FE0223F6E702
S3150802D03041F28511034803F04EFB00231846EEE73A
S3150802D04000800050D011030838B505460C46124B2D
S3150802D050D3F8600100F0030003280FD8DFE800F0D8
S3150802D0601602060A03F054FF0A2310E003F07CFEB8
S3150802D07009230CE003F04FFF0B2308E041F2F521E8
S3150802D080064803F028FB0023184600E0012305B1F1
S3150802D090286004B1236038BD00800050D01103080F
S3150802D0A038B505460C46124BD3F8000100F00300CA
S3150802D0B003280FD8DFE800F01602060A03F000FE7E
S3150802D0C0032310E003F050FE09230CE003F0FEFDF3
S3150802D0D0082308E041F24A21064803F0FCFA002335
S3150802D0E0184600E0012305B1286004B1236038BD63
S3150802D0F000800050D011030808B5344B98424DD031
S3150802D10010D9334B984251D031D9324B984251D02B
S3150802D11003F5740303F5105398424FD12E4BD3F8F7
S3150802D12098001DE02D4B984232D00BD92C4B9842D1
S3150802D13031D003F5371303F5D86398423ED1264B0F
S3150802D140986F0DE0274B98420ED008D9264B984285
S3150802D1500AD0264B984231D11F4B586E00E000B9CF
S3150802D16008BD234B984229D11B4B986DF8E7214BF2
S3150802D170984217D0204B984203D1174BD3F88C000C
S3150802D180EEE71E4B984219D1134BD3F88400E7E712
S3150802D190114B186FE4E7104B586FE1E70E4BD3F8C3
S3150802D1A08000DDE70C4BD3F88800D9E70A4BD3F8A1
S3150802D1B09000D5E7084BD3F89400D1E741F2BB318A
S3150802D1C00F4803F088FA0020CAE700BF80BA8C012C
S3150802D1D0007E56030090D0030080E00F405DC60033
S3150802D1E00024F40080841E0000093D00C0CF6A00B6
S3150802D1F040420F0080D54302006CDC020048E80179
S3150802D200D0110308F8B505460F46144603F071FE19
S3150802D210064645B12B685C403C405C402C60304673
S3150802D22003F062FEF8BD4FF49C71024803F053FA0C
S3150802D230F0E700BF9C11030808B5234B984233D088
S3150802D2401DD8A3F5B703A3F55863984228D006D983
S3150802D2501E4B984230D11E4BD3F8BC000EE01D4B34
S3150802D260984206D009D91C4B984202D01B4B9842C9
S3150802D27022D1174BD3F8A00000E0E8B908BD184B35
S3150802D280984215D0174B984203D1114BD3F8D000C8
S3150802D290F4E7154B98420FD10D4BD3F8C800EDE7CA
S3150802D2A00B4BD3F8B800E9E7094BD3F8C000E5E71A
S3150802D2B0074BD3F8CC00E1E741F2DE110B4803F045
S3150802D2C00AFA0020DAE700BFC0EA21010024F400C6
S3150802D2D00080E00F40420F0080841E0000093D00D6
S3150802D2E00048E801005A620280BA8C01D01103088C
S3150802D2F010B5B0F5207F39D01DD8B0F5007F2FD0F4
S3150802D30039D810B1B0F5C07F13D11C4B1C6F230B53
S3150802D310C4F3033413F00E0F2ED048F28803E34009
S3150802D32013F0010F28D14FF42271154803F0D3F9EF
S3150802D33022E0002420E0B0F5607F0FD10F4BD3F82E
S3150802D3408030C3F3011413F0200F15D0032C13D029
S3150802D3504FF426710A4803F0BEF90DE000240BE0EB
S3150802D360064BD3F89040C4F3046405E0034B1C6FE4
S3150802D370C4F3802400E00024601C10BD0080005025
S3150802D380D0110308F8B507460C461D4B4FF48032F8
S3150802D3909A660020FFF7ACFF00FB07F7194E00213B
S3150802D3A0304603F061FA05460221304603F05CFA7C
S3150802D3B00321304603F058FA20F440106CB9124A99
S3150802D3C0974207D8002202430021104803F046FA82
S3150802D3D085B9F8BD4FF48012F5E7002C07DD0C4A33
S3150802D3E0974201D80022EEE74FF48012EBE74FF49A
S3150802D3F04012E8E70121034803F036FAE9E700BFDD
S3150802D4000090005049F60008005A620231F60008F8
S3150802D410002D310138B504460D46430905D0012BC6
S3150802D42016D0022B0DD10B4805E040F235310A48D9
S3150802D43003F051F900202A4604F01F01FFF7A2FB68
S3150802D44038BD40F24331044803F045F90020F2E7BB
S3150802D4500248F0E768800050D01103086480005043
S3150802D46010B582B0002301930093B0F5807F00F2D5
S3150802D4700781B0F5807F00F2D081DFE810F056010F
S3150802D480CE01CE01CE01CE01CE01CE01CE01CE0114
S3150802D490CE01CE01CE01CE01CE01CE01CE01CE0104
S3150802D4A0CE01CE01CE01CE01CE01CE01CE01CE01F4
S3150802D4B0CE01CE01CE01CE01CE01CE01CE0156015C
S3150802D4C08E0156018E01A601A601A601A601A60194
S3150802D4D08E01AB0147016801B50147018E018E0134
S3150802D4E08E01CE01CE01CE01CE01CE01CE01CE01F4
S3150802D4F068018E018E018E01C9012C018E01CE01B1
S3150802D500CE01CE01CE01CE01CE01CE01CE01CE0193
S3150802D510CE01CE01CE017301A6015601560156016E
S3150802D520BA0147014701BF018301600117011701CB
S3150802D530CE01CE01CE01CE01CE01CE01CE01CE0163
S3150802D540CE01CE01CE01CE01CE01CE01CE01CE0153
S3150802D550CE01CE01CE01CE01CE01CE01CE01CE0143
S3150802D560CE01CE01CE01CE01CE01CE01CE01CE0133
S3150802D570CE01CE01CE01CE01CE01CE01CE01880169
S3150802D580CE01CE01CE01CE01CE01CE01CE01CE0113
S3150802D590CE01CE01CE01CE01CE01CE01CE01CE0103
S3150802D5A0CE01CE01CE01CE01CE01CE01CE01CE01F3
S3150802D5B0CE01CE01CE01CE01CE01CE01CE01CE01E3
S3150802D5C0CE01CE01CE01CE01CE01CE01CE01CE01D3
S3150802D5D0CE01CE01CE01CE01CE01CE01CE01CE01C3
S3150802D5E0CE01CE01CE01CE01CE01CE01CE01CE01B3
S3150802D5F0CE01CE01CE01CE01CE01CE01CE01CE01A3
S3150802D600CE01CE01CE01CE01CE01CE01CE01CE0192
S3150802D610CE01CE01CE01CE01CE01CE01CE01CE0182
S3150802D620CE01CE01CE01CE01CE01CE01CE01CE0172
S3150802D630CE01CE01CE01CE01CE01CE01CE01CE0162
S3150802D640CE01CE01CE01CE01CE01CE01CE01CE0152
S3150802D650CE01CE01CE01CE01CE01CE01CE01CE0142
S3150802D660CE01CE01CE01CE01CE01CE01CE01CE0132
S3150802D670CE01CE01CE01CE01CE01CE01CE01B00140
S3150802D680B0F5F06F00F0C48015D9B0F5206F00F040
S3150802D690B58061D9B0F5306F00F0B5806FD9B0F5B5
S3150802D6A0386F54D0B0F5406F40F0B780002101A81A
S3150802D6B0FFF7BAFA6EE0B0F5607F79D010D9B0F507
S3150802D6C0B06F00F0878034D9B0F5D06F00F08C8047
S3150802D6D0B0F5E06F38D1002101A8FFF7D9FB59E070
S3150802D6E0B0F5007F0AD103F0B1FA04464FF4007090
S3150802D6F0FFF7FEFDB4FBF0F401944BE012D9B0F546
S3150802D700207F4AD0B0F5407F40F0878003F0BEFA0A
S3150802D71004464FF42070FFF7EBFDB4FBF0F46408FF
S3150802D720019437E0B0F5C07F77D103F0AFFA0190E4
S3150802D73030E0B0F5806F48D0B0F5A06F6DD100210A
S3150802D74001A8FFF7A9FA25E0B0F5C06F65D1002157
S3150802D75001A8FFF70DFB1DE0B0F5106F49D0B0F533
S3150802D760186F04D1002101A8FFF7BEFB12E0B0F53D
S3150802D770086F52D1002101A8FFF792FC0AE0B0F522
S3150802D780286F4AD1002101A8FFF712FC02E003F034
S3150802D7905DFA0190019802B010BD03F077FA0446CB
S3150802D7A04FF42070FFF7A4FDB4FBF0F40194F1E7FF
S3150802D7B00021684602F0D0FF009C4FF46070FFF724
S3150802D7C097FDB4FBF0F40194E4E7002101A8FFF702
S3150802D7D0F1F9DFE7002101A8FFF798FADAE7002155
S3150802D7E001A802F0C4FFD5E7002101A8FFF7ECFA69
S3150802D7F0D0E7002101A8FFF719FBCBE7002101A812
S3150802D800FFF79CFBC6E7002101A8FFF7F9FBC1E772
S3150802D810002101A8FFF718FCBCE740F2A441024820
S3150802D82002F059FFB6E700BFD011030808B58020F9
S3150802D830FFF716FE034B984203D8034B4FF4803288
S3150802D8401A6708BD005A620200A0005000B583B0EC
S3150802D85000230193B0F5807F00F0BA8011D9B0F5A4
S3150802D860086F00F0BF8044D9B0F5286F00F0CE806B
S3150802D8706CD9B0F5306F7CD101A90020FFF7C0FB47
S3150802D88050E0802876D8242874D324385C2871D8A6
S3150802D890DFE800F04F4F4F4F4F704470A357707038
S3150802D8A0707070707070707070A370707039B2702A
S3150802D8B0707070707070707070707070B74F707032
S3150802D8C0706A707062BCAD7C7C70707070707070BB
S3150802D8D07070707070707070707070707070707038
S3150802D8E07070707070707070707070707070707028
S3150802D8F08100B0F5C06F70D00AD9B0F5E06F7BD061
S3150802D900B0F5F06F1AD101A90020FFF79DFB09E0D7
S3150802D910B0F5A06F6BD0B0F5B06F07D101A90020A2
S3150802D920FFF7F4F9019803B05DF804FBB0F5806FD0
S3150802D93020D101A90020FFF73DF9F3E7B0F5D06F32
S3150802D94018D101A90020FFF73FFAEBE7B0F5186FE7
S3150802D95057D0B0F5206F04D101A90020FFF7EEFADF
S3150802D960E0E7B0F5106F05D101A90020FFF75EFACE
S3150802D970D8E705D240F28951274802F0ACFED1E732
S3150802D980B0F5386F29D0B0F5406FF3D101A9002060
S3150802D990FFF74AF9C6E7214B1B6F03F00703013B62
S3150802D9A0032B0FD8DFE803F00B02050805230193C2
S3150802D9B0B8E703230193B5E708230193B2E70223E5
S3150802D9C00193AFE740F2D641134802F084FEA9E775
S3150802D9D001A9002002F0CBFEA4E701A90020FFF767
S3150802D9E0C7F99FE701A90020FFF75AFB9AE701A9A1
S3150802D9F00020FFF751F995E701A90020FFF748FA39
S3150802DA0090E701A90020FFF76FFA8BE701A900202A
S3150802DA10FFF7CEFA86E700BFD01103080080005050
S3150802DA2010B5084B5C6E04F4803403F580534FF44A
S3150802DA3080325A6601F00AFB1CB9034B4FF4803256
S3150802DA405A6610BD0080005000A0005038B5044642
S3150802DA5003680F2B00F2C18063680F2B00F2C380A4
S3150802DA60A3680F2B00F2C580237B0F2B00F2C78019
S3150802DA70637B0F2B00F2C980A37B3F2B00F2CB807E
S3150802DA80E37B3F2B00F2CD802369032B00F2CF8084
S3150802DA906369032B00F2D180E369032B00F2D3807A
S3150802DAA08020FFF7D3FE032800F0F3807F4B4FF464
S3150802DAB080125A667E4B45F60E02C3F8802003F59D
S3150802DAC080524FF0A061916203F500534FF4803201
S3150802DAD09A62774B9B6D13F4803FFAD1744B9B6D18
S3150802DAE013F0804FFAD1226863681B0543EA026382
S3150802DAF0227B43EA0243627B43EA0233A27B43EA7E
S3150802DB008213E27B13436A4D2B61AB6903F0004330
S3150802DB10226943EA8263626943EA0263227E43EA2E
S3150802DB200243627E43EA0223A27E1343AB614FF4A9
S3150802DB3000624FF440615F48FFF764FB2B6A23F0EB
S3150802DB400F03E269002A40F0848011460B43E17E06
S3150802DB5043EA81031A43564B1A62E369002B7AD1C8
S3150802DB60534A916A544B0B4094F8201043EA4113E6
S3150802DB7094F8211043EA011394F8241043EAC103E6
S3150802DB8043F4803393624A4B9A6D4C4B9343FAD1D2
S3150802DB90474A02F580514FF080738B62136923F46A
S3150802DBA07003A06843EA005313614FF000438B6188
S3150802DBB094F822301BB9424B4FF080729A6294F85D
S3150802DBC02330002B5ED13E4B4FF480329A62384B9B
S3150802DBD09B6D13F0804FFAD154E040F68A313948EA
S3150802DBE002F079FD38E740F68D31364802F073FDCA
S3150802DBF036E74FF43961334802F06DFD34E740F6F3
S3150802DC009331304802F067FD32E740F696312D48E7
S3150802DC1002F061FD30E740F699312A4802F05BFDD1
S3150802DC202EE740F69C31274802F055FD2CE740F6D0
S3150802DC309F31244802F04FFD2AE740F6A2312148D7
S3150802DC4002F049FD28E740F6A5311E4802F043FDD9
S3150802DC5026E708217AE7022B1CD0154A916A164B49
S3150802DC600B4094F8201043EA411394F8221043EA31
S3150802DC70016394F8241043EAC10394F8231043EA93
S3150802DC800143936294F825301BB1094B0E4AC3F837
S3150802DC90802038BD064B00221A619A614FF4085259
S3150802DCA04FF47F410948FFF7ADFAD6E700900050D6
S3150802DCB00040005A3840005AC7FFFEFE0300010022
S3150802DCC00060005AD0110308F1A7FFFF3440005A3A
S3150802DCD0014B93F9000070479C44002010B5044696
S3150802DCE04368072B46D8A368032B49D82378032B06
S3150802DCF04CD894F90130002B4EDB63784F2B28BFA2
S3150802DD004F231A46274B4FF40001596603F5B833D9
S3150802DD104FF4D151596203F580510220486003F548
S3150802DD20005301215960204B1B6913F4803FFAD135
S3150802DD30237842EA03231C4A53616168A3681B01DC
S3150802DD4043EA0123217B43EA4103617B0B43936048
S3150802DD50A17BE37B1B0143EA4113217C43EA41038E
S3150802DD60617C0B435360A37C1BB113466FF4D152FB
S3150802DD705A6210BD40F6E6510C4802F0ACFCB2E716
S3150802DD8040F6E851094802F0A6FCAFE740F6EA5128
S3150802DD90064802F0A0FCACE740F6EC51034802F054
S3150802DDA09AFCAAE70090005000000250D01103081E
S3150802DDB0014B1880704700BF9A440020014B188017
S3150802DDC0704700BF9844002010B5B0F5207F65D093
S3150802DDD039D8B0F5007F4ED071D810B1B0F5C07FF2
S3150802DDE06DD14C1E012C0BD9102904D8374BCB40C8
S3150802DDF013F0010F04D140F2CB21354802F06BFC37
S3150802DE0002F0D3FC02F0E3FCFEF7B4FE314A136FCC
S3150802DE1023F4704343EA0433136702F037FF2E4BA9
S3150802DE20D3F8843013F0100FF9D12B4BD3F88410A2
S3150802DE30C1F38111C1F1020102F0BEFC00F062F8E1
S3150802DE40FFF7F4FC10BDB0F5607F38D14C1E012CEB
S3150802DE5001D9042909D11F4AD2F8803023F03003A8
S3150802DE6043EA0413C2F88030ECE740F2F921184875
S3150802DE7002F031FCEFE74C1E1F2C09D8154AD2F8DE
S3150802DE80903023F0F85343EA0463C2F89030D9E796
S3150802DE904FF443710E4802F01EFCEFE74C1E012CAC
S3150802DEA007D80C4A136F23F4806343EA8423136763
S3150802DEB0C8E740F21231064802F00DFCF1E74FF4CA
S3150802DEC04671034802F007FCBCE700BF10010100D7
S3150802DED0D0110308008000500040005008B5012107
S3150802DEE0022000F025F94FF42070FFF701FA044BDF
S3150802DEF0187002F05AFC02F06AFCFEF73BFE08BDF7
S3150802DF002E44002008B54FF4C070FFF7A9FA054B56
S3150802DF10984205D902214FF42070FFF755FF08BD34
S3150802DF200121F8E780F0FA0210B5044602F0AEFEC7
S3150802DF300F4BD3F8843013F0100FF9D10C4BD3F8EA
S3150802DF408410C1F38111C1F1020102F035FC0121ED
S3150802DF50002000F049F924B1FFF7D4FFFFF766FC69
S3150802DF6010BD044B19784FF42070FFF72DFFF5E723
S3150802DF70004000502E4400202DE9F0410546FFF7E7
S3150802DF80BBF80446431E13F1030F39D8444B4FF42A
S3150802DF90C0225A6603F598335B68012B36D0802077
S3150802DFA0FFF754FC05283AD024F040743D4B9D42B5
S3150802DFB03CD03D4B9D423CD002F042FE074685428C
S3150802DFC03AD83A4BDB6813F0060FFAD1374BD3F837
S3150802DFD008809C6004F4F8149E6806F4F816B442A5
S3150802DFE02FD1B44233D0314BC3F808803D46802046
S3150802DFF0FFF72CFC05282ED0BD424CD9BDE8F0818E
S3150802E00040F6E2112A4802F066FBBFE7294B0122D5
S3150802E0105A60294B5B6813F0020FFAD1BFE702F088
S3150802E020C4FB02F0D4FBFEF7A5FDBDE744F000747D
S3150802E030C2E744F08074BFE70121284600F0D4F80D
S3150802E040BFE740F62A211A4802F045FBC9E72846E7
S3150802E050FEF7F2F9CBE702F019FE0446854214D31D
S3150802E060164BD3F8843013F0100FF9D1134BD3F8AB
S3150802E0708410C1F38111C1F10201204602F09CFB12
S3150802E080FFF740FFFFF7D2FBB6E740F63B21084809
S3150802E09002F021FBE4E70121002000F0A5F8ADE734
S3150802E0A00090005040420F0080841E00000001507C
S3150802E0B0D011030800E0015000C001500040005092
S3150802E0C038B50546FFF7B8F80446431E13F1030FA1
S3150802E0D00FD80E4B4FF400225A6624F040740C4AAD
S3150802E0E095420CD00B4A95420CD04FF0B44294603C
S3150802E0F038BD40F68671084802F0EDFAE9E744F0C1
S3150802E1000074F2E744F08074EFE700BF0090005015
S3150802E11040420F0080841E00D0110308034AD36EC2
S3150802E12023F0300301790B43D36670470040005051
S3150802E130F8B50446294BD3F8843013F0100FF9D1F9
S3150802E140264BD3F88430C3F381139C423FD002F0A6
S3150802E1507DFD0646012C27D002F0CBFE05461F4F51
S3150802E16007F500534FF000725A66204602F036FB56
S3150802E170621E4FF4806393403B67184B5B6E13F045
S3150802E180007F1FD1154BD3F8843013F0200F19D115
S3150802E190124BD3F8843013F0200FEED040F2B3714D
S3150802E1A00F4802F098FAE8E70E4B984204D8012184
S3150802E1B0304602F001FBCFE740F29B71084802F0B5
S3150802E1C08AFAF4E7284602F08FFE022C00D0F8BD40
S3150802E1D00021304602F0F0FAF9E700BF004000508D
S3150802E1E004120308005A620210B50C46034650B1DF
S3150802E1F0094A127812B1094A934208D921460220DD
S3150802E200FFF796FF10BD02F021FD0346F0E721460F
S3150802E2100120FFF78DFFF5E700430020005A62024E
S3150802E22038B52F4B4FF000425A6603F50B235C6C48
S3150802E23004F001044AF6CD321A64E8B9294B5B6B3D
S3150802E24013F00103FAD1274A556815F0010539D0AA
S3150802E25002F50052012151601A462249096B11F052
S3150802E260010F04D120498A4201D80132F5E71E4935
S3150802E2708A422FD81D4625E000231A4A126B12F04D
S3150802E280080F04D0184A934201D80133F5E7164A13
S3150802E290934221D8134B03F500522021916203F5CC
S3150802E2A0805301225A60002300E001330D4A926A24
S3150802E2B012F0200F02D10C4A9342F6D90A4A934227
S3150802E2C00CD8002514B1074B084A1A6402F087FADB
S3150802E2D0284638BD0725F5E70725F3E70725F1E7B9
S3150802E2E000900050004009503F420F003254FFFF91
S3150802E2F010B51A4B4FF000425A6603F50B235C6CB5
S3150802E30004F001044AF6CD321A6443785B0043F0FE
S3150802E3100103134AD363134B5B6B13F00B0FFAD14A
S3150802E320104A536823F4F873817843EA0113536059
S3150802E330C178437943EA012393600179837943EAF1
S3150802E340012313610078FFF76BFF14B1054B064AE8
S3150802E3501A6402F044FA012010BD00BF0090005072
S3150802E36000400050004009503254FFFF10B50F28F4
S3150802E37025D8164B5C6E03F580534FF000425A6659
S3150802E38003F50B235A6C02F001024AF6CD311964E1
S3150802E3900F4B5B6B13F0800FFAD10D490B6A23F012
S3150802E3A00F0303430B620AB10A4A0A64002C03DB11
S3150802E3B0094B4FF000425A6602F011FA10BD40F6B8
S3150802E3C07461064802F087F90F20D2E700800050F0
S3150802E3D0004009503254FFFF00A0005004120308FF
S3150802E3E008B50B4B98420DD00A4B98420CD003F550
S3150802E3F0804398420AD040F27931074802F06BF915
S3150802E400002008BD5620FCE75720FAE75820F8E70F
S3150802E4100000015B00000A503812030810B50446D2
S3150802E42002F0DEF9042307E004F5805304221A6198
S3150802E43004F500531A610B46591E002BF4D120230A
S3150802E44023610023E360A36041F202026261A361D1
S3150802E4504FF4A0226262E3612362A362E36263630A
S3150802E460236504F500520249D164236310BD00BF37
S3150802E470FF3F0D0338B504460D46194B98420BD09B
S3150802E480184B984208D003F58043984204D040F2CC
S3150802E4906911154802F01FF9F5B104F580530122F6
S3150802E4A05A6005F00F02636DC3F30B03002BFAD112
S3150802E4B0A263636D13F07803FBD115F0010F00D048
S3150802E4C0012315F0040F01D043F00203A26C02F0F7
S3150802E4D003029A42FAD138BD204602F081F9FAE7D8
S3150802E4E00000015B00000A5038120308F8B504461A
S3150802E4F00D4617468AB36F4B9C420BD06E4B9C4215
S3150802E50008D003F580439C4204D040F22A216B4886
S3150802E51002F0E1F83DB3A36813F0010F52D0BD42F1
S3150802E52028D3666806F00106B5FBF7F5013DFF2D0F
S3150802E53026D8002E44D0636D13F0280FFBD1A36CA6
S3150802E54013F0030F29D1A36C13F0010F36D1A36C74
S3150802E55013F0020F1AD0062720E040F22721574867
S3150802E56002F0B9F8C7E72046FFF73AFFFEF778FF49
S3150802E5700546D0E74FF40D71504802F0ACF8D0E7E3
S3150802E5804FF40F714D4802F0A6F8D2E740F249213E
S3150802E5904A4802F0A0F8002700E00527204602F0C4
S3150802E5A01FF9236923F07F4343EA05632361002E9B
S3150802E5B043D039462046FFF75DFF3EE00927EDE7DF
S3150802E5C00027EEE76368012B0FD1A36803F0E00387
S3150802E5D0402B41D00FD9602B4DD0802B5ED107EB53
S3150802E5E04703AB4253D8012311E04FF4177133485E
S3150802E5F002F071F8E9E733B1202B4FD1B7EBD50F0B
S3150802E60023D8082303E0B7EB151F17D810236D018B
S3150802E61007FB03F3B5FBF3F5203DEE00284BB3EBFE
S3150802E620C50F41D3264A3240636D13F0010FFBD161
S3150802E6302263636D13F0010FFBD1F8BD4FF421710C
S3150802E6401E4802F048F81023E1E740F289211B48E8
S3150802E65002F041F80823DAE71A4BA3FB0523B7EBC6
S3150802E660930F01D80623D2E740F28E21134802F00F
S3150802E67032F80623CBE7B7EB950F01D80423C6E792
S3150802E68040F293210D4802F026F80423BFE74FF41F
S3150802E69026710A4802F01FF80123B8E740F29E21C4
S3150802E6A0064802F018F8C8E740F2A921034802F022
S3150802E6B012F8B7E70000015B00000A503812030897
S3150802E6C0F8FF7F00ABAAAAAA70B504460D461646FD
S3150802E6D0436823B1636DC3F30B03002BFAD12046BB
S3150802E6E0FFF79CFE636923F44C5323F00F036A7BFE
S3150802E6F01343EA8913432A8A13436361A36823F0FF
S3150802E700804323F0E2032A7B13432A7E13436A6972
S3150802E7101343A360AB681BB9A36843F00043A36025
S3150802E720EA69002A70D0A168694B0B40117A43EA5C
S3150802E7308153917A43EA4143918801F4C0410B43DC
S3150802E740517843EA8103517B43EAC103917B43EA49
S3150802E7500113927843EA8223A360E2685D4B134071
S3150802E760EA6911690B4351690B43917943EA81239B
S3150802E770D27943EA4223E360EB691B78012B01D085
S3150802E780032B03D1E36843F00403E360EB691B78C8
S3150802E790023BDBB2012B51D94F4B9C426BD04F4BFC
S3150802E7A09C426AD003F580439C4262D04FF0FF3305
S3150802E7B003F593735B0103F1A04303F57033022259
S3150802E7C05A60EB695A7A04F580539A62EB695B7A66
S3150802E7D01BB1E36843F40063E360EB69DB7A63B178
S3150802E7E0E36843F40043E3603B4B9C4247D03B4B10
S3150802E7F09C424BD03A4B9C424FD0636A23F00303A8
S3150802E800EA69D27B134363623EB196F82030002B45
S3150802E8104AD004F5805301221A6204F58053012274
S3150802E8205A60AA68002A4ED129782046FFF722FEA6
S3150802E830A36CDB4313F4405FFAD170BD264B9C42AE
S3150802E84013D0264B9C4212D003F580439C420AD031
S3150802E8504FF0FF33A6335B0103F1A04303F5703390
S3150802E86002225A60ADE70223F4E70023F2E7012306
S3150802E870F0E702239CE700239AE7012398E7EB696E
S3150802E8801B7B03F00F03174A5366B0E7EB691B7B42
S3150802E89003F00F03134A1367ACE7EB691B7B03F01C
S3150802E8A00F03104AD367A8E7E36923F0090396F82A
S3150802E8B02220134396F82120134343F0010304F55B
S3150802E8C08052D361A9E769682046FFF70FFEABE7D6
S3150802E8D0E39BBDFFFFF9F0870000015B00000A50C9
S3150802E8E000400A500090035038B505460C46154BB1
S3150802E8F098420AD0144B984207D003F580439842AF
S3150802E90003D07021114801F0E6FE64B1237B802B07
S3150802E9100ED0637B032B10D800231A4621462846BD
S3150802E920FFF7D2FE38BD7221084801F0D4FEEDE7A2
S3150802E9307621064801F0CFFEEBE77921034801F07C
S3150802E940CAFEE9E70000015B00000A503812030814
S3150802E95038B505460C462D4B984203D08A212C48D9
S3150802E96001F0B9FE44B3294B9D422AD0002009285A
S3150802E97005D00A2803D02AD31038012827D8637B62
S3150802E980032B29D8237B802B2BD16369B3F1804FC4
S3150802E9902CD1238AB3F5805F02D0B3F5405F2AD122
S3150802E9A0A368013BB3F5165F2AD200231A4621460D
S3150802E9B02846FFF789FE38BD8C21154801F08BFEE3
S3150802E9C0D1E75620FEF742FF0B28D0D1D7E79E2182
S3150802E9D00F4801F080FED2E7AD210D4801F07BFE1B
S3150802E9E0D0E7AF210A4801F076FECEE7B121084802
S3150802E9F001F071FECDE7B321054801F06CFECFE7C1
S3150802EA00B521034801F067FECFE700BF0000015BAE
S3150802EA1038120308F8B505460F46144602F069FA95
S3150802EA20064645B12B685C403C405C402C6030464B
S3150802EA3002F05AFAF8BD4FF49C71024801F04BFEF7
S3150802EA40F0E700BF9C11030838B504460D460328B3
S3150802EA5003D8DFE800F00B040609002308E00F23B9
S3150802EA6006E040F2FF3303E03F2301E040F2FF7382
S3150802EA70EB4013F0010F07D00122AA4004EB44042D
S3150802EA802401044B1A5138BD40F28541024801F06F
S3150802EA9022FEF1E740D003507012030838B5044647
S3150802EAA00D46032803D8DFE800F00B040609002305
S3150802EAB008E00F2306E040F2FF3303E03F2301E0BC
S3150802EAC040F2FF73EB4013F0010F07D00122AA4070
S3150802EAD004EB44042401044B1A5138BD40F2564152
S3150802EAE0024801F0F8FDF1E740E00350701203080E
S3150802EAF0F8B504460D4616461F46032803D8DFE82E
S3150802EB0000F00B040609002308E00F2306E040F292
S3150802EB10FF3303E03F2301E040F2FF73EB4013F0BB
S3150802EB20010F1BD026B1FFB129462046FFF78CFFFD
S3150802EB30072D1ED8A90004EB44031B0106FA01F2AD
S3150802EB400F2000FA01F115481844FFF763FF26B9AA
S3150802EB50FFB129462046FFF777FFF8BD4FF4B0719B
S3150802EB600F4801F0B8FDDDE729462046FFF796FF74
S3150802EB70DEE7A5F108039B0004EB440C4FEA0C1CE4
S3150802EB8006FA03F20F21994006486044FFF742FF4E
S3150802EB90DDE729462046FFF781FFDEE734C003504A
S3150802EBA0A81203083CC0035070B504460D46164623
S3150802EBB01F2906D856B104F580540123AB402360B9
S3150802EBC070BD9121034801F086FDF3E704F5005470
S3150802EBD0F3E700BF9C11030810B5162000F016FCD7
S3150802EBE0074B00245C65FF229A625C60214620205E
S3150802EBF0FEF710FC21462120FEF70CFC10BD00BFD3
S3150802EC000000045038B504460D46072806DC85F090
S3150802EC10010221460448FFF7C7FF38BD772103489A
S3150802EC2001F059FDF3E700BF40000450E012030863
S3150802EC3010B50446002832D023781B0633F0F85361
S3150802EC4032D1E3780F2B34D801212020FEF7E2FBDC
S3150802EC5001212120FEF7DEFB184B01225A60227899
S3150802EC6012069A606178A27842EA01429A61FF2204
S3150802EC709A6200229A631A644FF000425A6503F5B3
S3150802EC8000534FF0FF321A65162000F0F9FBE178BF
S3150802EC90162000F003FC162000F0C8FB10BD9121D7
S3150802ECA0074801F018FDC7E79221054801F013FD50
S3150802ECB0C7E79521024801F00EFDC5E7000004509A
S3150802ECC0E0120308F8B505460C461746C3B20126F4
S3150802ECD09E40072854DC002C57D0236823F47C1363
S3150802ECE023F00F03002B55D1A37A1B0433F44033C8
S3150802ECF055D1E37A1B0533F4801355D1237B5B0583
S3150802ED0033F4001355D12D4A02F500531E652168C6
S3150802ED10AB0003F1A04303F588235960637B05EB37
S3150802ED20450102EB01110B66A07AE37A1B0543EA59
S3150802ED300043207B43EA4053CB6527F003070F675E
S3150802ED4002F0E0F81E4B5E65237A0BB11C4B1E647B
S3150802ED50637A0BB11A4B9E632379A27942EA03427C
S3150802ED60164B03F500518A616579E27942EA054252
S3150802ED7003F58054A2614E639E6402F0BEF8F8BDA4
S3150802ED80DE21104801F0A7FCA5E7DF210D4801F0B6
S3150802ED90A2FCA2E7E2210B4801F09DFCA4E7E721C9
S3150802EDA0084801F098FCA4E7E921064801F093FC1B
S3150802EDB0A4E7EB21034801F08EFCA4E70000045007
S3150802EDC000100450E012030810B5C3B201249C4097
S3150802EDD007280ADC02F096F8074B5A6D22EA040263
S3150802EDE05A659C6202F089F810BD40F27B1103480D
S3150802EDF001F071FCEEE700BF00000450E0120308C0
S3150802EE0010B5C3B201249C4007280BDC02F07AF83D
S3150802EE100B4BDB6A23420BD1094B5B6B9C430CD031
S3150802EE20002406E040F29911064801F054FCEDE789
S3150802EE30002402F062F8204610BD0124F9E700BF5B
S3150802EE4000000450E012030870B50446C3B2012557
S3150802EE509D40072810DC02F055F80B4B5E6B04EB5D
S3150802EE60440403EB04135C6E02F047F8354209D1F9
S3150802EE70C4F30A10013070BD4FF4E071034801F083
S3150802EE802AFCE8E70020F6E700000450E01203082F
S3150802EE9010B5044648B123787BB1022B1ED0032B4A
S3150802EEA01FD0012B07D0002309E040F23A2111486E
S3150802EEB001F011FCEFE70F2301E040F2FF736278DD
S3150802EEC0D34013F0010F0ED06278237801219140C6
S3150802EED003EB43031B01084AD15010BD40F2FF332E
S3150802EEE0EDE73F23EBE740F23D21024801F0F3FB51
S3150802EEF0EAE700BF1813030840E00350F8B50446D2
S3150802EF000D46164603784BB1022B1ED0032B1FD093
S3150802EF10012B01D0002303E00F2301E040F2FF7327
S3150802EF206278D34013F0010F14D0304BD3F8103364
S3150802EF30ABB90F2D18D8DFE805F01D1D1D1D1D1DC7
S3150802EF401D1D1D1D1D1D1D1D1D1D40F2FF33E7E75D
S3150802EF503F23E5E75D21264801F0BDFBE5E7602191
S3150802EF60234801F0B8FBE4E7B421214801F0B3FBDA
S3150802EF70002700E02F460F2F1BD81DB1F6B12046F9
S3150802EF8001F060FF617807291CD82378890003EB12
S3150802EF9043031B0107FA01F20F2000FA01F1154893
S3150802EFA0184401F042FC1DB9E6B1204601F04AFFB9
S3150802EFB0F8BDB8210E4801F08EFBDEE72046FFF7C2
S3150802EFC067FFDFE723780839890003EB43031B0150
S3150802EFD007FA01F20F2000FA01F10748184401F076
S3150802EFE024FCE0E72046FFF753FFE1E700C00350A1
S3150802EFF05813030834C003503CC0035010B588B0F8
S3150802F0000023079307AA0392042204920D4A126860
S3150802F01005921C2206920093022203A90A4801F0CD
S3150802F020BAFD044610B1204608B010BD054B1B6850
S3150802F03018685A688118013901F088F90028F2D04F
S3150802F0406E24F0E750440020C9F5000808B50A21E5
S3150802F050014801F009FC08BD49F6000870B50446E6
S3150802F0600D4616461F2906D856B104F580540123C3
S3150802F070AB40236070BD9121034801F02CFBF3E7F6
S3150802F08004F50054F3E700BF9C11030808B50548C8
S3150802F09001F04BFF00B908BD40F2CB11024801F05E
S3150802F0A01AFBF8E73C1403089813030810B586B050
S3150802F0B00DF1040C1A4C0FCCACE80F002368CCF8FF
S3150802F0C00030FF238DF80530164BD3F84C3113F474
S3150802F0D0802F05D1134BD3F8503100238DF8053014
S3150802F0E09DF80530FF2B0BD09DF80530FF2B12D06B
S3150802F0F001A8FEF7F3FD3220FEF75AFE06B010BD50
S3150802F1004FF07E6393F89C2093F99C30002BEBDB3F
S3150802F1108DF80520E8E726238DF80530E8E700BFD5
S3150802F120F41303080080E00F10B58AB0EC46194CB8
S3150802F1300FCCACE80F000FCCACE80F0094E8030044
S3150802F1408CE80300144BD3F84C3113F4002F05D086
S3150802F150124B1C88FF2C05D96B2403E00E4BD3F8FF
S3150802F1605041E4B28DF81940FEF7B2FD241803D4D3
S3150802F170FF2C02DDFF2400E000248DF81840084821
S3150802F180FDF760F96846FEF761FC3220FEF716FEC7
S3150802F1900AB010BD081403080080E00F0001E00F52
S3150802F1A0C017530208B50248FEF7E6FE08BD00BFBF
S3150802F1B080D5430208B50248FEF782FF08BD00BFA4
S3150802F1C0C0EA210110B5FEF789FE4E4C236F23F0E3
S3150802F1D0070343F0030323670020FEF7A5FE236F08
S3150802F1E023F474432367484BD3F8FC3013F0807F2B
S3150802F1F075D1464B0022C3F88020424CD4F8203100
S3150802F20023F0070343F00203C4F82031D4F8283167
S3150802F21023F0070343F00203C4F82831D4F88031F7
S3150802F22023F0030343F00103C4F88031D4F8903283
S3150802F23023F0030343F00103C4F89032D4F84031B3
S3150802F24023F0030343F00203C4F84031D4F86031D3
S3150802F25023F0030343F00203C4F86031D4F84032C2
S3150802F26023F0030343F00203C4F84032D4F8003211
S3150802F27023F0070343F00203C4F80032D4F8083235
S3150802F28023F0070343F00203C4F80832D4F85032D5
S3150802F29023F0030343F00203C4F85032D4F8703261
S3150802F2A023F0030343F00103C4F87032D4F8203282
S3150802F2B023F0070343F00103C4F82032FEF7B0FB3C
S3150802F2C04FF0E022136943F004031361D4F8603265
S3150802F2D023F0070343F00103C4F8603210BD0A4B5A
S3150802F2E0D3F8FC2022F08072C3F8FC20074A0021DA
S3150802F2F0C2F88010D3F8FC2042F08072C3F8FC20D2
S3150802F3007BE700BF0080005000ED00E0009000504F
S3150802F31008B50C4801F009FE68B9FFF7C7FEFFF702
S3150802F32003FFFFF73FFFFFF745FFFFF7AFFEFFF7C4
S3150802F33049FF002008BD4FF44E71034801F0CBF98E
S3150802F340EBE700BF381403089813030800B583B027
S3150802F350094B93E803000090ADF80410090C8DF8E8
S3150802F36006106846FEF7C4FF0920FEF7FFFF0020D5
S3150802F37003B05DF804FB00BF3014030810B582B071
S3150802F380074A536F43F001035367002400948DF82C
S3150802F39004406846FEF7C2FE204602B010BD00BF12
S3150802F3A000400050002808DB0901C9B200F160409C
S3150802F3B000F5614080F80013704700F00F0009015C
S3150802F3C0C9B2014B1954704714ED00E0002807DB57
S3150802F3D000F01F02400901239340024A42F82030F6
S3150802F3E0704700BF00E100E000280CDB00F01F02B6
S3150802F3F04009012393402030034A42F82030BFF3E4
S3150802F4004F8FBFF36F8F704700E100E010B50446D7
S3150802F4104C2803D82046FFF7E7FF10BD40F2251116
S3150802F420014801F058F9F5E75414030810B50446E3
S3150802F4304C2803D82046FFF7C9FF10BD4FF4987130
S3150802F440014801F048F9F5E75414030810B50446D3
S3150802F4504B280BD86211084B53F8220004F01F04FC
S3150802F460E04080F0010000F0010010BD40F23B11BF
S3150802F470024801F030F9EDE700E100E05414030810
S3150802F480002808DB00F01F02400901239340603080
S3150802F490014A42F82030704700E100E038B50446D8
S3150802F4A00D4600F110035C2B06D80F2D0AD8294603
S3150802F4B0204601F0E8F938BD4FF4EF71044801F02F
S3150802F4C00AF9F2E740F2DF11014801F004F9EEE722
S3150802F4D05414030810B501F015FD0B4B1B783BB904
S3150802F4E0094B01221A7001F008FD6FF0040408E0C6
S3150802F4F001F003FD07E005212046FFF7CFFF01349F
S3150802F50064B24B2CF7DD10BD2F44002010B504461B
S3150802F51001F0EFFC024B1C6001F0E6FC002010BD76
S3150802F5200443002010B501F0E4FC034B1C6801F00B
S3150802F530DBFC204610BD00BF04430020012809D089
S3150802F54002280AD060B108B5D921064801F0C3F8E5
S3150802F550002008BD4FF4007070474FF440707047A2
S3150802F56000207047B414030808B503280BD8DFE84F
S3150802F57000F002110407002008BD4FF48050FBE793
S3150802F5804FF44050F8E7EB21044801F0A4F84FF491
S3150802F5908050F1E74FF40050EEE700BFB4140308B9
S3150802F5A008B5042806D8DFE800F0030404040300BB
S3150802F5B0002008BDFE21024801F08DF80020F8E778
S3150802F5C0B41403082DE9F0438FB080460E4614465C
S3150802F5D01D461368D3F8009091F83130002B3CD0C1
S3150802F5E006AFDFF80CC2BCE80F000FC79CE80F0095
S3150802F5F087E80F0000270097019702970397049759
S3150802F6000597A3680893207BFFF798FFADF82600B5
S3150802F610607BFFF7A9FFADF82800CDF834D00123A7
S3150802F6208DF80630A07BFFF7BBFF8DF80000B36BA1
S3150802F630694A1A60B36B694A5A60B36B9F60B36BC7
S3150802F640674ADA6032462946404600F0B1FC074668
S3150802F65070B138460FB0BDE8F08306AFDFF894C143
S3150802F660BCE80F000FC79CE80F0087E80F00C1E748
S3150802F6702369C5F8A430237E85F8AB30E37D85F887
S3150802F680AA30A37D85F8A930637D85F8A830A37EC4
S3150802F69085F8AD30637E85F8AC30237F85F8AF30C8
S3150802F6A0E37E85F8AE302368C5F8A0304D4801F0F0
S3150802F6B03CFC01230422A17D607DFFF719FA012390
S3150802F6C00222217EE07DFFF713FA002385F8B03087
S3150802F6D0206901F02AFC96F83130002B5DD006A984
S3150802F6E04846FFF701F995F8B03043F0040385F868
S3150802F6F0B030227D3C4B263203EB42121421516074
S3150802F700617DA07D227D41EA004103EB4212C2F8E7
S3150802F710DC14E27D207E217D42EA004203EB41139E
S3150802F720C3F8D424A37B012B3CD0032B3AD0A37B6A
S3150802F730023BDBB2012B42D995F8B03013F0010F28
S3150802F7400CD0627EA17E237D42EA01425B0103F16F
S3150802F750A04303F5703341F2CC415A5095F8B030C4
S3150802F76013F0010F10D0237D1F4AA63302EB431371
S3150802F77002215960E37E207F217D43EA004302EBA2
S3150802F780411241F2D041535009F50053174ADA643F
S3150802F79005214846FEF76EFE5BE706A94846FFF7CF
S3150802F7A0D7F8A6E795F8B03043F0010385F8B030EC
S3150802F7B000230222A17E607EFFF79AF9B7E795F841
S3150802F7C0B03043F0020385F8B03000230422217FCB
S3150802F7D0E07EFFF78DF9AFE79108030831090308C0
S3150802F7E0AB0803084014030800C00350FF3F0D038B
S3150802F7F0001503082015030808B540F242210248FD
S3150802F80000F069FF08BD00BFB4140308037D0E4A61
S3150802F81003EB430102EB0111C96E03EB430302EB4F
S3150802F8200312136F03F00203084A914201D0002023
S3150802F83070470BB900207047036A006D984214BFDF
S3150802F84000200120704700BF000004503044002009
S3150802F85030B583B0007D144B00EB400203EB021275
S3150802F860D56E00EB400203EB02131C6F04F0020490
S3150802F8700DF1070101F09EFA38B99DF807306BB908
S3150802F8800A4B9D4207D0002009E040F2F9310848A8
S3150802F89000F021FFF1E724B1002000E0012003B0C7
S3150802F8A030BD0120FBE700BF0000045030440020B1
S3150802F8B04015030838B50446007DFDF7DFF848B958
S3150802F8C02046FFF7A3FF0546207DFDF7F7F838B96E
S3150802F8D0284638BD40F22D41044800F0FCFEEFE709
S3150802F8E040F23241014800F0F6FEF1E740150308FE
S3150802F8F030B583B004460DF10701007D01F05AFACE
S3150802F900B8B99DF80730D3B1256DA26CE36C1344E0
S3150802F910AB4201D3AA4204D940F24F410E4800F045
S3150802F920DAFEA26CE36C1344AB4212D0284603B04B
S3150802F93030BD40F24441084800F0CDFEE1E7237DA0
S3150802F94003EB43031B0103F1A04303F58023DD6E9A
S3150802F950DBE71546EAE700BF4015030810B504467B
S3150802F960FFF7C6FF236D834201D2C01A10BDA26CEF
S3150802F970E16C0A44934205D2A36CE26C1344206DEF
S3150802F980181AF3E740F26A41014800F0A4FEF3E7C9
S3150802F99040150308F8B50446FFF78CFF50B1D4F8B2
S3150802F9A09820236D9A4251D040F2CD21284800F082
S3150802F9B092FE4BE001F0A6FA0646207DFDF75EF8B8
S3150802F9C010BB2046FFF794FF451EA36CAB4202D933
S3150802F9D0E56C013D1D4494F85470207DFDF76EF8E0
S3150802F9E0C0B9EFB92B46D4F898209A4229D01A788A
S3150802F9F0112A20D0132A1ED0013BA26C9A42F2D9B0
S3150802FA00E36C013B1344EEE740F2D321104800F0C1
S3150802FA1062FED6E740F2DF210D4800F05CFEE0E721
S3150802FA20D4F89820236D9A420DD04FF439710848BC
S3150802FA3000F051FE07E0112A14BF0022012284F8C1
S3150802FA409C20C4F89850304601F057FAF8BD00BF1A
S3150802FA504015030830B583B003464169026902F1CD
S3150802FA60FF3CC5684C6F01F17C020020C8675060F4
S3150802FA709060D060B1F87C006CF30E10A1F87C009F
S3150802FA8091F87E0040F0100081F87E0091F87F0020
S3150802FA9040F0300081F87F00C1F88050C1F88440F8
S3150802FAA0012081F88C0091F878000093064B6431A6
S3150802FAB0FCF7B8FF08B903B030BD40F28D310348F0
S3150802FAC000F009FEF7E700BF71FF020840150308B8
S3150802FAD0F0B585B0044600F1380500F11806002392
S3150802FAE083636B60AB60EB6090F83A3043F01003C7
S3150802FAF080F83A3090F83B3043F0030380F83B3005
S3150802FB00664FC7630764007DFCF7B8FF00283ED13D
S3150802FB100022A263E2632264626494F83A3043F0F4
S3150802FB20100384F83A3094F83B3043F0030384F820
S3150802FB303B30E7632764207D00EB40031B0103F19A
S3150802FB40A04303F58023DA6E544B9A4225D00DF171
S3150802FB500F0101F02FF950BB9DF80F306BB394F8E3
S3150802FB6044306FF3410384F8443000944C4B2A46E0
S3150802FB702146207DFCF756FF002840F08280207D32
S3150802FB80FCF79CFF002840F0828005B0F0BD40F2E9
S3150802FB90CA51444800F09FFDBAE7FCF78FFF0028D8
S3150802FBA0F3D040F2D3513F4800F095FDEDE740F21D
S3150802FBB0D9513C4800F08FFDCEE72046FFF798FE64
S3150802FBC0074602A9207D01F019F900284DD1029BAA
S3150802FBD0002B50DD029B591E20690023A361E361B5
S3150802FBE023626362228B61F30E122283A27E42F0A3
S3150802FBF01002A276E27E42F00302E276E061276212
S3150802FC00227D294902EB420001EB0010076FC7F378
S3150802FC10400794F824C067F3410C84F824C0A77EF1
S3150802FC2063F30417A776076F5FFA8CF067F3000091
S3150802FC3084F8240002EB420201EB02110A6F9210C9
S3150802FC40616A62F39F01616294F8442042F00202FB
S3150802FC5084F84420D2B263F3000284F84420B61032
S3150802FC60636C66F39F0363647FE740F2E1510D48D4
S3150802FC7000F031FDABE740F2E3510A4800F02BFDF4
S3150802FC80A8E740F20461074800F025FD77E74FF43C
S3150802FC90C161044800F01FFD77E700BF3044002029
S3150802FCA00F0A03084015030800000450F0B589B08E
S3150802FCB004460E46007DFCF7E1FE002834D10DF11C
S3150802FCC01F01207D01F076F8002833D12046FFF780
S3150802FCD00FFE0546236D834269D29DF81F307BBB12
S3150802FCE0236DA26C934231D0238DC3F30A12324498
S3150802FCF062F30E132385236D1E442665A26CE36CFC
S3150802FD0013449E4200F09180226D934240F28F8006
S3150802FD10236DAB4200F09180207DFCF7CFFE0028D0
S3150802FD2040F0928009B0F0BD40F28241494800F0A5
S3150802FD30D2FCC4E740F28641464800F0CCFCC5E74F
S3150802FD4040F28E41434800F0C6FCC9E7701E276997
S3150802FD5004F128030021A162E16221636163B4F818
S3150802FD6028C060F30E1CA4F828C094F82A0040F0B4
S3150802FD70100084F82A0094F82B0040F0030084F857
S3150802FD802B00E762226394F82A2061F3041284F8AE
S3150802FD902A2023F00302237D42F0020203EB4303E7
S3150802FDA01B0103F1A04303F580231A67A3E79DF815
S3150802FDB01F30B3B9227D284802EB420300EB031336
S3150802FDC0596EC1F30A1131445B6E23F4FF4323F0E3
S3150802FDD0700343EA011302EB420200EB0210436688
S3150802FDE089E704941D4B039300230293019601238A
S3150802FDF00093236902462168207D00F092FC70B9BF
S3150802FE00237D154A03EB430102EB0111496E21F4E6
S3150802FE10801103EB430302EB031251666BE740F2D0
S3150802FE20CB410C4800F057FCEAE722656CE740F242
S3150802FE30DE41084800F04FFC6AE7012384F8543093
S3150802FE402046FFF745FE67E740F2F741014800F012
S3150802FE5042FC67E740150308000004500F0A03082E
S3150802FE602DE9F04F83B090464AB104460D46002963
S3150802FE7078D0FFF71FFD814628B14FF000084046AB
S3150802FE8003B0BDE8F08F2046FFF768FD4746804578
S3150802FE9028BF07467FB194F896A0BAF1000F59D049
S3150802FEA001F030F80190266D2046FFF7D1FC834613
S3150802FEB0B846002217E040F216512C4800F00BFC17
S3150802FEC0E9E70133C4F89830D14612E008F1FF3861
S3150802FED0B9F1000F05D0112B14BF0023012384F8B2
S3150802FEE09C3001320136BA420BD2D4F89830B3426A
S3150802FEF0E7D03378112BE9D0132BE7D005F8013B6D
S3150802FF00EFE7D4F89810A26CE36C134499421ED01A
S3150802FF10D4F898108A4201D88B4204D840F242514A
S3150802FF20124800F0D8FB019800F0E7FF3946204650
S3150802FF30FFF7BCFE94F89630002BA0D0BBF1000F59
S3150802FF409DD0236E5B6811212046984797E7C4F82F
S3150802FF509820DDE73A46216D284600F05CFEB84651
S3150802FF60D346E3E74FF0000889E700BF40150308C8
S3150802FF7038B51446556995F88C308BB1002385F847
S3150802FF808C3005F19000FCF7F1F908B1FFF762FD34
S3150802FF9063681BB1A268002120469847002038BD35
S3150802FFA040F26A31014800F096FBE7E7401503087C
S3150802FFB070B588B006460C461546A0220021204692
S3150802FFC000F036FEA446AE46BEE80F00ACE80F00C7
S3150802FFD0DEF80030CCF8003004F1640C05F1140E9A
S3150802FFE0BEE80F00ACE80F00DEF80030CCF80030AF
S3150802FFF0AB6AA364EA6AE264236595F8302084F85A
S31508030000952095F8332084F89620C4F89830012370
S3150803001084F89C3084F85430AB6B23663460374BD2
S315080300207360374BB360374BF360374B7361374BAA
S31508030030B361374B3361FCF7C3FC10B1354A9042C1
S3150803004053D1002107A8FCF739FC00284FD19DF8A6
S315080300501C302375002107A8FCF730FC00283FD184
S315080300609DF81C3084F87830207DFCF707FD0028BE
S3150803007040D1E36C0494284A039200220292019326
S31508030080012300932369A26C2168207D00F049FBB4
S3150803009090BB237D03EB43031B0103F1A04303F545
S315080300A0802342F264024FF480119950AB6B93F9A3
S315080300B01000FFF7E5F9AB6B93F91000FFF7B6F9F4
S315080300C004F1900000F008FB3046FFF71FFA2046BC
S315080300D0FFF7FEFC207DFCF7F1FC48B1102007E092
S315080300E0207DFCF743FC102002E0102000E01020DE
S315080300F008B070BD1020FBE71020F9E7B50903081F
S31508030100C9090308890A03084309030849090308AF
S315080301101D010308038000F00F0A030838B50568B4
S3150803012095F894304BBB044600F0CAFCFFF7FAF97E
S31508030130844229D02B6E93F91000FFF7A1F92B6E91
S3150803014093F91000FFF762F9287D00F013FEF8B95A
S31508030150287DFCF70BFC08BBFCF7E2FB10B1154A3C
S31508030160904221D1002323606360E3606361A36146
S315080301702B6EDB682846984738BD40F266210E4841
S3150803018000F0A9FA0F20F7E70020FFF7BFF9D1E738
S3150803019040F29721084800F09EFAD9E740F29B21DE
S315080301A0054800F098FAD7E740F29F21024800F085
S315080301B092FAD7E7058000F04015030800B583B027
S315080301C0684600F00BF8044B00220199009800F0EA
S315080301D00FF803B05DF804FB0843002002490160E9
S315080301E0024A521A42607047A84400200080002041
S315080301F02DE9F0410D4690461C46074618B111B144
S31508030200042A00D823B940F28F11104800F063FA84
S31508030210276065600026A660E660266184F81C8070
S3150803022066626761A761384600F058FC013DC5F36D
S31508030230CF057D80236901332361A3680833A3604F
S31508030240E3680833E3603046BDE8F0818C1503089C
S31508030250BFF34F8F0549CA6802F4E062044B1343A0
S31508030260CB60BFF34F8F00BFFDE700BF00ED00E093
S315080302700400FA05BFF35F8F074B5A6A22F48032EC
S315080302805A62D3F8942022F00102C3F89420BFF3EC
S315080302904F8FBFF36F8F704700ED00E070B5FFF720
S315080302A0E9FFA0220021214800F01CFC204B21492C
S315080302B08B4206D021F01F02203AB2F1005F0FD31A
S315080302C000E01D4A1D4D286842F001021C4CC4F883
S315080302D098001C4EC4F89C60C4F8A020013028601E
S315080302E08B4210D01F3323F01F0343F00303134835
S315080302F002681349C1F89820C1F89C30124BC1F81B
S31508030300A03001320260BFF35F8F0D4B0522C3F89D
S3150803031094205A6A42F480325A62BFF34F8FBFF36E
S315080303206F8FBFF34F8FBFF36F8F70BD90ED00E0F4
S3150803033040440020404400200000012030430020B0
S3150803034000ED00E003000020E1FF0020F8B50446B5
S315080303500D461746384B1B68FF2B11D80026FFF7A7
S3150803036089FF1F2F36D914F01F0F02D024F01F045C
S31508030370203415F01F0F01D025F01F0500230FE0C9
S315080303801A26ECE765451CD10123002621E02B49F3
S31508030390D1F8982022F0FF02C1F898200133DBB286
S315080303A0254A1268934213D22449C1F89830D1F8E2
S315080303B09C2022F01F02D1F8A01021F01F0C9442B2
S315080303C0E0D06445E3D89542E1D30123282600E02B
S315080303D000239BB1BFF35F8F184B0522C3F8942004
S315080303E05A6A42F480325A62BFF34F8FBFF36F8F54
S315080303F0BFF34F8FBFF36F8F3046F8BD0122114607
S315080304000F4800F06FFB24F01F0444F0030400F0C8
S3150803041079FD094F3B6825F01F0545F00305074A93
S31508030420C2F89830C2F89C40C2F8A05000F065FDA7
S315080304303B6801333B60CDE73043002000ED00E025
S3150803044090ED00E010B4194B5A6E02F4803203F5AE
S3150803045080514FF480304866586E4FF000434B6620
S31508030460134B596C01F001014AF6CD341C64104B49
S315080304705B6B13F0010FFAD10E4B01245C600C4B36
S315080304801B6B13F0010FFAD011B1094B0A49196412
S31508030490002803DB094B4FF0004159661AB9074B8D
S315080304A04FF480325A665DF8044B7047008000505B
S315080304B000400950006009503254FFFF00A0005065
S315080304C00023062073B1704754B224B9013353B1DC
S315080304D05DF8044B70470228F8D008680A49086093
S315080304E01046F3E710B4094A52F823100A7A022A87
S315080304F0EAD9032AEAD1441EE4B2012CE6D90868EC
S31508030500014908601046E1E734430020704400209F
S3150803051010B5A2B02024224600211AA800F088FBB1
S315080305202F4B1A934FF4E1331C9302238DF875303E
S315080305302C4B1E9309238DF87E300A238DF88030C1
S315080305400021159116911791189119914FF480135B
S315080305501593254B19931091119112911391149197
S31508030560224B1093224B14933C2201A800F060FB04
S315080305700DF1040E0DF1540CBCE80F00AEE80F00A4
S31508030580DCF80030CEF800300DF1180E0DF1400CF2
S31508030590BCE80F00AEE80F00DCF80030CEF80030F8
S315080305A0144B0B930C9401238DF835308DF83630A4
S315080305B0114B0F93114B1AAA01A91148FFF702F819
S315080305C0044638B900214FF4E13000F072F82046AA
S315080305D022B010BDAE210B4800F07DF8F2E700BF4C
S315080305E048140308441403083C00015B0100100087
S315080305F04400015B3843002084440020584300200C
S315080306000C440020E415030808B50248FFF7F4F87C
S3150803061008BD00BF0C44002008B50248FFF7ECF8F4
S3150803062008BD00BF0C44002008B5064B044613B1A9
S315080306300021AFF30080044B1B6803B1984720469B
S3150803064000F07EF9000000002844002070B50D4D27
S3150803065000260D4C641BA410A64209D10B4D002697
S315080306600B4C00F02DFD641BA410A64205D170BDEA
S3150803067055F8043B01369847EEE755F8043B01362F
S315080306809847F2E7A0440020A0440020A044002095
S31508030690A44400200F20704720F07F4040EA817071
S315080306A0704708B5082000F025F8082000F02DF853
S315080306B008BD00B583B000230093019301238DF889
S315080306C00030FFF7E9FF019008216846FBF7E8FDCC
S315080306D003B05DF804FBFEE7002303607047FEE7FB
S315080306E004E050F8042B41F8042B1A46531E002A3B
S315080306F0F7D170474FF06041D1F8003E012282409E
S315080307001343C1F8003E002070474FF06041D1F80B
S31508030710003E0122824023EA0203C1F8003E00207C
S31508030720704700B589B084460E9807900D980690D1
S315080307309DF8300005900B9804909DF828000390C7
S3150803074000200290019300920B4662460121FBF7B3
S31508030750D5FF09B05DF804FB38B505460C4600F02D
S3150803076075FA05B128600CB10D23236038BD30B581
S3150803077083B005460C46002301934FF0E0231B691B
S3150803078013F0040F0CD000F081FA01900C230093A8
S315080307900DB1019B2B600CB1009B236003B030BDE8
S315080307A0694601A8FCF7E4FAF2E708B500F080FA0F
S315080307B00021FCF7E7FD08BD08B5002903DD012183
S315080307C0FCF7E0FD08BD0021FCF7DCFDFAE708B5F8
S315080307D002214FF42070FDF7F7FA08BD70477047FA
S315080307E0436813F0010F19D0836813F0010F03D080
S315080307F0036913F0010F09D00A238363436D13F0CA
S31508030800500FFBD1836C13F0030FFBD100F5005394
S3150803081001225A60436813F0020FFBD17047836CB9
S3150803082013F0400FFBD04164704770B505460E467A
S31508030830144600F05EFB2B685C4034405C402C6039
S3150803084000F052FB70BD70470020704710B5044690
S31508030850084611461A46029BA04710BD08B503462B
S3150803086008461146984708BD08B5034608469847FB
S3150803087008BD08B500F001F808BD0020704708B5A3
S31508030880FEF746FD08BD08B540B2FEF78BFD08BD69
S31508030890D0F8A0301B689A6C12F0800F03D0DB6B7C
S315080308A00B70002070471B20704738B50446D0F8F4
S315080308B0A0301D68AB6C13F0400FFBD000231A461B
S315080308C094F8A91094F8A800FEF712F900231A461B
S315080308D094F8AB1094F8AA00FEF70AF994F8B03026
S315080308E013F0010F12D194F8B03013F0020F16D19A
S315080308F005F5005304221A6500212846FDF7BAFDBB
S31508030900D4F8A40000F016FB002038BD00231A46CD
S3150803091094F8AD1094F8AC00FEF7EAF8E3E7002381
S315080309201A4694F8AF1094F8AE00FEF7E1F8DFE73D
S3150803093008B5D0F8A0301868FFF771FF002008BD86
S31508030940FEE780F89510704790F8950070472DE9F3
S31508030950F84304460F46154690F8959000264FF03F
S31508030960010802E094F89C304BB9AE421FD294F8C2
S315080309709630002BF6D02046FFF70CF8F2E7B9F1CC
S31508030980000F02D03B780A2B09D0236E5B683978AF
S3150803099020469847804650B901370136E5E7236E66
S315080309A05B680D212046984780460028EDD04046CF
S315080309B0BDE8F88308B590F894301BB9FFF7C7FF6D
S315080309C0002008BD0E20FCE790F89430DBB170B523
S315080309D004460D460B69B3F5006F16D800F092FA74
S315080309E006466C6194F88C304BB1294604F19000A5
S315080309F0FBF7A8FC304600F080FA002070BD2846B5
S31508030A00FFF728F8F6E70E2070472120F6E730B5FA
S31508030A1083B0144692F8543033B1936D0BB1D06D4D
S31508030A209847002384F8543094F8963023B9002065
S31508030A3084F8540003B030BD2046FEF709FF0028AA
S31508030A40F5D0236E5B68132120469847002507E0F7
S31508030A50112B14BF0023012384F89C300135EDB212
S31508030A600F2D0DD8236E1B680DF1070120469847F5
S31508030A7030B99DF80730112BEAD0132BEED1E7E7EF
S31508030A802046FFF725F8D2E72DE9F04180460F46C1
S31508030A9016461D4600232B602968721A39444046B8
S31508030AA0FFF7DEF9034620B12C681C442C60B442D8
S31508030AB0F2D32B6813B10020BDE8F0811B20FBE7B6
S31508030AC050B138B5056800F01DFA0024AC65EC652D
S31508030AD000F013FA204638BD22207047002303602E
S31508030AE04360704701F00303DB004FF0FF0C0CFA79
S31508030AF003FC07290ED810B54FEA910E0EF10C0127
S31508030B0050F821409A40624002EA0C02624040F8DB
S31508030B10212010BD704708B5FFF79AFB08B5FFF704
S31508030B20FAFF08BD08B500F00FF808BD704770470F
S31508030B3008B500F03DF800F046F800F056F800F066
S31508030B404AF800F049F808BD08B5FFF737FBFFF781
S31508030B5079FCFFF7EBFFFEF7BDFCFEF7F7FBFFF7A4
S31508030B608EFEFEF70BFCFFF799FBFFF7E0FF00F09D
S31508030B7006F800F027F8FFF7DBFF08BD704708B54E
S31508030B8000F012F800F011F800F010F800F00FF872
S31508030B90FFF7F4FF08BD10B582B0049C0094FFF775
S31508030BA055FE02B010BD70477047704770477047CF
S31508030BB008B5FBF76DFBFFF75CFEFBF75FFBFEF77C
S31508030BC01DFA08BD704708B5FBF74EFCFBF708FD91
S31508030BD0FFF767FD08BD7047704708B500F011F8C1
S31508030BE008BD08B5FFF76CFC08BD08B5FFF752FD4D
S31508030BF0FFF729FEFFF728FEFFF7EFFFFFF7F1FFE1
S31508030C0008BD08B5FFF784FC08BD08B5FFF78AFFDA
S31508030C10DEF706FDFCE70A44431E914200D17047FE
S31508030C2010B511F8014B914203F8014FF9D110BDE4
S31508030C3002440346934200D1704703F8011BF9E7C0
S31508030C40014B1868704700BF4444002008B50B4B96
S31508030C501B6F03F00703013B032B09D8DFE803F0F7
S31508030C600B020509FFF7ECFF04E0054B186801E0E2
S31508030C70FEE7044808BD0448FCE700BF00800050AF
S31508030C804C44002080D54302002D310108B5FFF7F7
S31508030C90DDFF054B1B6FC3F303330133B0FBF3F0DF
S31508030CA0024B186008BD00BF008000504044002076
S31508030CB00048704700B4C40400487047002D31014A
S31508030CC0014B1868704700BF4C4400200048704722
S31508030CD080D543021A4B4FF400225A664FF0B443A9
S31508030CE09868C0F304400C2808D8DFE800F0090721
S31508030CF00707070722181A071C1E2000002070473B
S31508030D004FF0B4439B6803F04073B3F1807F12D06E
S31508030D10B3F1007F11D003B170470A4870470A48F8
S31508030D2070470A4870470A4870470A4870470A488E
S31508030D3070470A4870470A4870470A48ECE700BFF5
S31508030D400090005000093D000024F400C0EA210188
S31508030D5080BA8C010048E801005A6202405DC60069
S31508030D6080841E0040420F00014B1868704700BF7D
S31508030D704844002008B50A4B1B7853B107280AD8FC
S31508030D80084B03EB00131B7B3BB1FEF71DF8002052
S31508030D9008BD0548FCE70548FAE70548F8E700BF34
S31508030DA02D44002080420020028000F0018000F0DC
S31508030DB0078000F00C4B1B7873B110B50C46072857
S31508030DC00CD869B1094B03EB00131B7B53B1FEF730
S31508030DD017F82070002010BD054870470548FAE744
S31508030DE00448F8E70448F6E72D440020804200202B
S31508030DF0028000F0018000F0078000F00C4B1B789E
S31508030E0073B110B50C4607280CD869B1094B03EB27
S31508030E1000131B7B53B1FEF717F82060002010BDA3
S31508030E20054870470548FAE70448F8E70448F6E72B
S31508030E302D44002080420020028000F0018000F04B
S31508030E40078000F010B5044648B123787BB1022B1E
S31508030E501ED0032B1FD0012B07D0002309E04FF424
S31508030E60D8711148FFF737FCEFE70F2301E040F28B
S31508030E70FF736278D34013F0010F0ED0627823789C
S31508030E800121914003EB43031B01084AD15010BDCE
S31508030E9040F2FF33EDE73F23EBE740F2B311024895
S31508030EA0FFF719FCEAE700BF1813030840D00350FD
S31508030EB090B108B50A46036803F03F01C3F38210ED
S31508030EC013F4E07F06D0012808D10548FEF7C6F8D3
S31508030ED0002008BD0348F9E70E2070470E20F8E7FF
S31508030EE0688000506480005010B962B6BFF36F8FF4
S31508030EF07047EFF3108072B6704780F31188BFF31B
S31508030F006F8F7047EFF31180302383F3118870478F
S31508030F104FF4004070474FF47A70704719B108B51B
S31508030F2000F00DF808BD2220704708B50121FFF728
S31508030F30BFFF08BD08B50021FFF7BAFF08BD70B5A6
S31508030F4004460E46FFF7DEFF05461F2C00F2A78070
S31508030F50DFE804F01019A520272EA5353CA543A5DF
S31508030F604A51A5585F66A56DA574A59EA57BA5825E
S31508030F70A5899097FFF76AFE306000242846FFF795
S31508030F80BCFF204670BD4FF4C070FCF769FA3060A9
S31508030F900024F3E74FF42070FCF762FA306000246C
S31508030FA0ECE74FF44070FCF75BFA30600024E5E7A2
S31508030FB04FF46070FCF754FA30600024DEE74FF410
S31508030FC00070FCF74DFA30600024D7E74FF48060D1
S31508030FD0FCF746FA30600024D0E74FF44060FCF78C
S31508030FE03FFA30600024C9E74FF4C060FCF738FACB
S31508030FF030600024C2E74FF4F060FCF731FA306042
S315080310000024BBE74FF4B060FCF72AFA30600024EB
S31508031010B4E74FF4D060FCF723FA30600024ADE759
S315080310204FF41060FCF71CFA30600024A6E74FF46F
S31508031030E060FCF715FA306000249FE74FF4A060E0
S31508031040FCF70EFA3060002498E74FF41860FCF7B3
S3150803105007FA3060002491E74FF42860FCF700FA9A
S31508031060306000248AE74FF48070FCF7F9F93060A2
S31508031070002483E74FF43060FCF7F2F9306000246C
S315080310807CE74FF42060FCF7EBF93060002475E742
S315080310904FF40860FCF7E4F9306000246EE7002398
S315080310A0336021246AE70000000000000000000006
S315080310B0000000000000000000000000000000001F
S315080310C0F8B500BFF8BC08BC9E467047F8B500BF24
S315080310D0F8BC08BC9E46704773696D706C69636992
S315080310E074795F73646B5F323032352E362E322F46
S315080310F068617264776172652F6472697665722FA7
S31508031100636F6E66696775726174696F6E5F6F7612
S3150803111065725F73776F2F7372632F736C5F636F79
S31508031120732E630073696D706C69636974795F7391
S31508031130646B5F323032352E362E322F706C617403
S31508031140666F726D2F636F6D6D6F6E2F7372632F7C
S31508031150736C5F736C6973742E63000073696D70C7
S315080311606C69636974795F73646B5F323032352EE9
S31508031170362E322F706C6174666F726D2F647269C6
S315080311807665722F6770696F2F7372632F736C5F3F
S315080311906770696F2E6300001E00000373696D7024
S315080311A06C69636974795F73646B5F323032352EA9
S315080311B0362E322F706C6174666F726D2F656D6C87
S315080311C069622F696E632F656D5F6275732E68009A
S315080311D073696D706C69636974795F73646B5F3285
S315080311E03032352E362E322F706C6174666F726DFF
S315080311F02F656D6C69622F7372632F656D5F636DFF
S31508031200752E630073696D706C69636974795F73AE
S31508031210646B5F323032352E362E322F706C617422
S31508031220666F726D2F656D6C69622F7372632F65B6
S315080312306D5F656D752E630073696D706C6963699F
S3150803124074795F73646B5F323032352E362E322FE4
S31508031250706C6174666F726D2F656D6C69622F733E
S3150803126072632F656D5F6575736172742E63000013
S3150803127073696D706C69636974795F73646B5F32E4
S315080312803032352E362E322F706C6174666F726D5E
S315080312902F656D6C69622F696E632F656D5F677065
S315080312A0696F2E680000000073696D706C69636965
S315080312B074795F73646B5F323032352E362E322F74
S315080312C0706C6174666F726D2F656D6C69622F73CE
S315080312D072632F656D5F6770696F2E630000000088
S315080312E073696D706C69636974795F73646B5F3274
S315080312F03032352E362E322F706C6174666F726DEE
S315080313002F656D6C69622F7372632F656D5F6C64ED
S315080313106D612E630000000073696D706C69636903
S3150803132074795F73646B5F323032352E362E322F03
S31508031330706C6174666F726D2F706572697068651B
S3150803134072616C2F696E632F736C5F68616C5F677C
S3150803135070696F2E6800000073696D706C69636944
S3150803136074795F73646B5F323032352E362E322FC3
S31508031370706C6174666F726D2F70657269706865DB
S3150803138072616C2F7372632F736C5F68616C5F672E
S3150803139070696F2E6300000073696D706C69636909
S315080313A074795F73646B5F323032352E362E322F83
S315080313B0706C6174666F726D2F7365727669636597
S315080313C02F636C6F636B5F6D616E616765722F73F5
S315080313D072632F736C5F636C6F636B5F6D616E61B2
S315080313E06765725F696E69745F68616C5F73322ED5
S315080313F0630000000126000004000000000000004E
S3150803140000010000000000000B0000000C000000B3
S315080314100300000000002020000000000200000076
S315080314203C3C3C00000000000000000000000000F7
S3150803143001031001010903001E0000001600000045
S315080314401A000000560000000000015B15000000AA
S315080314504414030873696D706C69636974795F73FF
S31508031460646B5F323032352E362E322F706C6174D0
S31508031470666F726D2F736572766963652F696E740D
S315080314806572727570745F6D616E616765722F73CD
S3150803149072632F736C5F696E746572727570745FAD
S315080314A06D616E616765725F636F727465786D2EC1
S315080314B06300000073696D706C69636974795F739F
S315080314C0646B5F323032352E362E322F706C617470
S315080314D0666F726D2F736572766963652F696F73AD
S315080314E0747265616D2F7372632F736C5F696F73A3
S315080314F0747265616D5F6575736172742E6300003E
